:10000000DDEF00F06C75752076616E206861692007
:10001000323031353131373100006C757520766101
:100020006E2068616920323031353131373100005E
:10003000000E956E966E956A8C68046805689592B8
:100040008C9295908C90086A076AF4EF00F022C0B9
:1000500024F0236A235007080EE324BE02D08D94B7
:1000600001D08D84969496908D9096908D80D890A6
:100070002436232AEFD71200956A8C6A04B802D07E
:100080008C9801D08C88959804BC02D08C9C01D0AF
:100090008C8C959C04B402D08C9401D08C84959463
:1000A00095928C8262EF00F010C022F0D0DF0FC07A
:1000B00022F0CDDF0EC022F0CADF0DC022F0C7DF74
:1000C0000494DAD795968C8695968C9695928C9218
:1000D00071EF00F020500E6E0E1E21C00DF00D1EAF
:1000E000E3D712001A801AC020F01FC021F0F2DFFF
:1000F0001A901AC020F01FC021F0ECDF12001A94F1
:100100001CC01FF0EFDF200E006E002EFED700D0C7
:1001100000001200EA6A1D0EE96EEF500DE0060EB7
:10012000016E006A002EFED7012EFBD77B0E006EFB
:10013000002EFED7EF2EF3D712001A901A921A84CF
:100140001A96380E1C6EDBDF420E006E002EFED7B4
:1001500000000C0E1C6ED3DF420E006E002EFED788
:100160000000010E1C6ECBDF020E1D6ED3DF060EEB
:100170001C6EC5DF420E006E002EFED70000F5EFAC
:1001800000F01A841EC01FF0ADDF200E006E002E9E
:10019000FED700D00000D7EF00F00900F5520CE0C8
:1001A000F6CF1CF0F7CF1DF0F5CF1EF0EAD71CC03C
:1001B000F6FF1DC0F7FFF1D71200F86AD09E066A5D
:1001C0000D6A0E6A0F6A106A196AC150C00B0F09D6
:1001D000C16E070EB46E1168126813681468156852
:1001E00016681768186824D7A8D7800E1C6E87DF9A
:1001F000040EF66E000EF76ED0DFC00E1C6E7FDFB1
:100200001A0EF66E000EF76EC8DF1B6A1BBE03D017
:100210001B5013080CE31C0E1C6E71DF020E1C6ECB
:10022000FA0E1D6E77DF1C2EFBD71B2AEFD71B6A39
:100230001BBE03D01B5013080CE3180E1C6E5FDFAF
:10024000020E1C6EFA0E1D6E65DF1C2EFBD71B2ADC
:06025000EFD7DBD703002D
:020000040030CA
:0E00000027CC3E1E0087A1000FC00FE00F406E
:00000001FF
;PIC18F4550
;CRC=C5A9  CREATED="12-Thg3-23 11:42"
