:10000000C9EF01F0F76A140FF66E000EF72209002F
:10001000F5501200C0F9A4B0999282F880908883BC
:10002000C6A1868EF76A340FF66E000EF72209001D
:10003000F55012007FBFDFEFF7FBFDFE306A305056
:1000400007080EE32FBE02D08D9401D08D849694C4
:1000500096908D9096908D80D8902F36302AEFD73D
:1000600012002CC02DF02BC02EF02DC02FF0E6DF9B
:100070002EC02FF0E3DF12002C6A2B6AF2DF2C6A0D
:100080002B6AEFDF2C6A2B6AECDF2C6A2B6AE9DF24
:1000900095968C8695968C9695988C8895988C9844
:1000A000959A8C8A959A8C9A959E8C8E959E8C9E0C
:1000B00095948C8495948C942C682B68D2DF2C6852
:1000C0002B68CFDF959C8C8C959C8C9C74EF00F0FA
:1000D000FF0E926E3C0E936EF10E946E000E966EB5
:1000E000956E956A8C6AC8D7F19E066A056AC050FB
:1000F000C00B0209C06EC08EC280C150C00B0C097B
:10010000C16E95908C9008EF02F005C02BF006C0F0
:100110002CF02CC02FF092DF2BC02FF08FDF9596A4
:100120008C8695968C961200E00E0516036A245074
:10013000180FE96E000E0320EA6EEF500512E5DF9E
:10014000242A030E24161AEF02F0E00E0516036AA5
:100150002450180FE96E000E0320EA6EEF500512CE
:10016000D4DF2406030E241621EF02F0EA6A2B0ED8
:10017000E96EEF500DE0060E016E006A002EFED70C
:10018000012EFBD77B0E006E002EFED7EF2EF3D78D
:10019000D0EF00F0938681B60CD0140E2B6EE6D70C
:1001A000938681B606D02674286A276A938681A62C
:1001B000FDD72BEF02F0016A026A006A036A305031
:1001C00002E12F5018E0100E316ED8902D362E36E9
:1001D000003603363050035C02E12F50005C07E329
:1001E0002F50005ED8A003063050035ED880013641
:1001F0000236312EEAD71200036A2C50F2CF2EF0CD
:10020000F29E10DF2EBEF28E016E2E6E2E1E2EC0BE
:100210002FF014DF2DC02EF02E1E2EC02FF00EDF7B
:10022000959A8C8A959A8C9A3FEF01F02B502D6EFF
:100230002D1E2DC02FF002DF2CC02DF02D1E2DC045
:100240002FF0FCDE959A8C8A959A8C9A2BEF01F010
:100250002B682C68EBD745EF01F0176A1750070899
:1002600016E3036A17500F0FE96E000E0320EA6EC3
:10027000EFCF2BF017C02CF02BC02DF0BDD7A60E62
:10028000006E002EFED70000E3D7172AE7D7C7EF8E
:1002900001F028C02EF027C02DF0306A0A0E2F6E14
:1002A0008ADF00C02BF003C02CF003C003F0005025
:1002B000F2CF2DF0F29EA6DE2DBEF28E0F6E28C07C
:1002C0002EF027C02DF0306A0A0E2F6E74DF02C0A8
:1002D0002CF001C02BF002C02EF001C02DF0306ACE
:1002E0000A0E2F6E68DF00C02BF003C02CF003C095
:1002F00003F00050F2CF2DF0F29E84DE2DBEF28E80
:10030000106E28C02EF027C02DF0306A640E2F6EBC
:1003100052DF02C02CF001C02BF002C02EF001C051
:100320002DF0306A0A0E2F6E46DF00C02BF003C09E
:100330002CF003C003F00050F2CF2DF0F29E62DEED
:100340002DBEF28E116E28C02EF027C02DF0030EA8
:10035000306EE80E2F6E2FDF02C02CF001C02BF0A4
:1003600002C02EF001C02DF0306A0A0E2F6E23DF7E
:1003700000C02BF003C02CF003C003F00050F2CFFC
:100380002DF0F29E3FDE2DBEF28E126E66D72CEF60
:1003900002F0F86AD09EB886080EAF6E020EB06EFC
:1003A000A60EAC6E900EAB6E046A0B6A0C6A0D6AF8
:1003B0000E6A176A246A2690269226842696286A50
:1003C000276AC150C00B0F09C16E070EB46E0F68CB
:1003D00010681168126813681468156816681D0E95
:1003E000186E170E196E1B0E1A6E0F0E1B6E1D0E59
:1003F0001C6E150E1D6E170E1E6E130E1F6E030E55
:10040000206E0B0E216E090E226E0D0E236E60D62D
:10041000140E256E2682850ECD6EC00EF2129D80C2
:10042000938A81BA02D02686268426A60DD026A4D9
:1004300005D07AD6272AD8B4282A06D026B404D0E4
:1004400084D6272AD8B4282A938881B801D0269642
:0C04500026B600D09FD61DD7E3D70300CE
:020000040030CA
:0E00000027CC3E1E0087A1000FC00FE00F406E
:00000001FF
;PIC18F4550
;CRC=0C00  CREATED="07-Thg5-23 15:32"
