:10000000BEEF0BF0F76A140FF66E000EF722090030
:10001000F5501200C0F9A4B0999282F880908883BC
:10002000C6A1868E2B6A2B5007080EE32ABE02D08B
:100030008D9401D08D84969496908D9096908D801D
:10004000D8902A362B2AEFD712001FC020F01EC0EE
:1000500021F020C02AF0E6DF21C02AF0E3DF120001
:100060001F6A1E6AF2DF1F6A1E6AEFDF1F6A1E6ABE
:10007000ECDF1F6A1E6AE9DF95968C8695968C9652
:1000800095988C8895988C98959A8C8A959A8C9A44
:10009000959E8C8E959E8C9E95948C8495948C9434
:1000A0001F681E68D2DF1F681E68CFDF959C8C8C8E
:1000B000959C8C9C68EF00F0FF0E926E3C0E936E48
:1000C000F10E946E000E966E956E956A8C6AC8D786
:1000D000F19E066A056AC050C00B0209C06EC08E50
:1000E000C280C150C00B0C09C16E95908C90DFEF9F
:1000F0000BF0EA6A1E0EE96EEF500DE0060E016E7F
:10010000006A002EFED7012EFBD77B0E006E002E5C
:10011000FED7EF2EF3D7FAEF0BF0016A026A006AFE
:10012000036A2B5002E12A5018E0100E2C6ED89072
:1001300028362936003603362B50035C02E12A505C
:10014000005C07E32A50005ED8A003062B50035E34
:10015000D880013602362C2EEAD712008E0E006EA1
:1001600053C001F052C002F0036A015209E102C01B
:1001700001F0026A080E005E015202E1006A08D036
:10018000D89001BE04D0023601360006F9D7019E90
:1001900012004FC056F05350561A56AE05D0D894A0
:1001A000D8904FBED8802FD04FC056F052C057F0D5
:1001B0004E50575E06E056AE26D0D850010AD86E93
:1001C00022D053C057F04F50575E06E056AE1BD0BA
:1001D000D850010AD86E17D054C057F05050575E0F
:1001E00006E056AE10D0D850010AD86E0CD055C0DB
:1001F00057F05150575E06E056AE05D0D850010A70
:10020000D86E01D0D89012004750D8B4A5D0536E04
:100210004B50D8B4A1D0535E05E37F0E5326D8B01F
:100220009BD006D0810E535ED8A096D0D8B494D07F
:1002300053C000F0016A026A036A526A48C051F072
:10024000518E49C050F04AC04FF0190E536E4E50B7
:100250004F5E0DE2010E505E0AE2515E08E2525E10
:1002600006E2522A512A502A4E504F2628D04D508D
:10027000505E12E2010E515E0FE2525E0DE2522A12
:10028000512A4D5050264E504F2619E3502A17E15F
:10029000512A15E1522A13D04C508009515E0EE2CA
:1002A000010E525E0BE2522A4C50800951264D50ED
:1002B0005026E9E3512AE7E1522AE5D70380532E7D
:1002C00001D00BD0D8904F36503651365236D89098
:1002D0000336023601365436BAD754A006D0D89029
:1002E000013202320332543202D0000635E054BEED
:1002F0001ED0D8904F365036513652364E504F5E43
:1003000007E2010E505E04E2515E02E2525E1AE321
:100310004D50505E05E2010E515E02E2525E12E364
:100320004C508009515E03E2010E525E0BE3032A3A
:1003300009E1022A07E1012A05E1002A0DE0013264
:100340000232033248C053F04C50531A53AE02D01D
:10035000018E06D0019E04D0006A016A026A036A17
:1003600012008E0E006E4E50005E4FC002F050C064
:1003700001F0028E005209E0D890025202E10152CF
:1003800004E002320132002EF7D74FAE05D0011E35
:10039000021E012AD8B4022A12004E50D8B471D0DD
:1003A000006E5250D8B46DD0002604E3810E0026B2
:1003B00068E204D07F0E005E64E363E04FC056F055
:1003C0005350561A4F8E538E51505502F4CF58F059
:1003D00050505402F4CF03F0F3CF57F05502F350CE
:1003E0005826F4505722000E032251505402F35065
:1003F0005826F4505722000E026A032202224F5060
:100400005502F3505726F4500322000E02224F509B
:100410005402F3500326F4500222000E016A012216
:1004200051505302F3505726F4500322000E02227B
:10043000012250505302F3500326F4500222000EC2
:1004400001224F505302F3500226F4500122002A99
:1004500001BE05D057360336023601360006000EBF
:1004600057AE0AD0032A02220122015005E10250B0
:1004700003E1035001E1002A56BE018E56AE019EF3
:1004800004D0006A016A026A036A1200800ED8B2C0
:10049000571A5C6A5D6A53C05BF057505B1A525042
:1004A000D8B4DCD05A6E006E5650D8B4E0D05A5E44
:1004B000D8B481D03DE357C060F0608F58C05FF082
:1004C00059C05EF05D6AD89060335F325E325D3253
:1004D0005A2EF8D75BAE03D05C80DDD05C905A908A
:1004E0005C88EA6A550EE96EE9D05C985BBE0AD07A
:1004F0005AA013D060335F325E325D32002AD8B426
:10050000C5D00BD060BF0CD0D8905D365E365F365C
:1005100060370006D8B4BAD0F5D75C8C6BD05C9C41
:1005200053C05BF053AE02D0608FA9D0609FA7D0BC
:1005300056C05AF056C000F052505A5E53C060F098
:10054000608F54C05FF055C05EF05D6AD890603334
:100550005F325E325D325A2EF8D75BAE03D05C82DA
:100560009AD05C925A905C8AEA6A590EE96EA6D0DB
:100570005C9A5BBE0AD05AA013D060335F325E3201
:100580005D32002AD8B482D00BD060BF0CD0D89096
:100590005D365E365F3660370006D8B477D0F5D763
:1005A0005C8E28D05C9E57C05BF057AE02D0608F47
:1005B00066D0609F64D057C060F0608F58C05FF015
:1005C00059C05EF05BAE04D0609F5C8464D05C94E4
:1005D0005D6A5A90EA6A550EE96E70D05BBE1CD017
:1005E00053C05BF05AA006D060335F325E325D329A
:1005F000002A4CE05DAE0BD05E2A09E15F2A07E1DC
:10060000602B05E160335F325E32002A3FE05CBC64
:1006100086D75CBEC7D71CD0800E601B60AF04D0ED
:100620003AD057C05BF00AD053C05BF0605306E18C
:100630005F5204E15E5202E1006A21D060BF08D03F
:10064000D8905D365E365F366037002EF7D71ED005
:100650005BAE02D0608F13D0609F11D056C000F007
:1006600057C060F058C05FF059C05EF008D052C06B
:1006700000F053C060F054C05FF055C05EF060C041
:1006800001F05FC002F05EC003F034D0006A016A7E
:10069000026A036A2FD05D6A5E1E5F1E601F5D1EC8
:1006A0005D2A05E15E2A03E15F2A01E1602B5CB06F
:1006B00015D75CB256D75CB48AD7B3D7EF505E2655
:1006C00005E35F2A03E1602BD8B45A80ED52EF5066
:1006D0005F2603E3602BD8B45A80ED52EF50EFBE93
:1006E00001D0800A6027D8B05A805CB8FED65CBAC8
:1006F0003FD774D712004D9041C046F040C045F03E
:100700003FC044F03EC043F041C051F040C050F003
:100710003FC04FF03EC04EF0556A546A536A526A69
:1007200038DD04E34D804450800A446E46C051F0E9
:1007300045C050F044C04FF043C04EF0556A546A73
:10074000536A8E0E526E25DD01E217E146C051F06C
:1007500045C050F044C04FF043C04EF002DE02C02E
:1007600053F001C052F0FADC03C04AF002C049F075
:1007700001C048F000C047F0BDD046C051F045C0B0
:1007800050F044C04FF043C04EF0800E556E960EB0
:10079000546E180E536E960E526EFBDCD8A0A2D08B
:1007A00046C051F045C050F044C04FF043C04EF039
:1007B000556A546A536A700E526EEFDD03C051F0F1
:1007C00002C050F001C04FF000C04EF0CADD02C0C0
:1007D0004CF001C04BF046C051F045C050F044C051
:1007E0004FF043C04EF0556A546A536A700E526E11
:1007F000D4DD03C051F002C050F001C04FF000C082
:100800004EF04CC053F04BC052F0A8DCD88251C01F
:1008100055F050C054F04FC053F04EC052F003C0DA
:1008200059F002C058F001C057F000C056F02EDE5B
:10083000516A506A4F6A8E0E4E6E03C055F002C068
:1008400054F001C053F000C052F0A7DD03C046F0E1
:1008500002C045F001C044F000C043F04CC053F06A
:100860004BC052F07BDC516A506A4F6A8E0E4E6E5E
:1008700003C055F002C054F001C053F000C052F064
:100880008CDD03C04AF002C049F001C048F000C04E
:1008900047F046C051F045C050F044C04FF043C04F
:1008A0004EF05FDD02C053F001C052F057DCD89229
:1008B0004AC055F049C054F048C053F047C052F008
:1008C00003C059F002C058F001C057F000C056F004
:1008D000DDDD03C04AF002C049F001C048F000C0AD
:1008E00047F008D046C04AF045C049F044C048F03F
:1008F00043C047F046C051F045C050F044C04FF0EF
:1009000043C04EF02EDD02C053F001C052F026DC91
:10091000D88246C055F045C054F044C053F043C09F
:1009200052F003C059F002C058F001C057F000C0A7
:1009300056F0ACDD03C046F002C045F001C044F003
:1009400000C043F04DA003D04850800A486E46C016
:1009500051F045C050F044C04FF043C04EF0556ACE
:10096000546A536A526A15DC36E04DA019D04252DF
:1009700017E1D8824AC055F049C054F048C053F03E
:1009800047C052F0596A586A576A7F0E566E7EDD2C
:1009900003C04AF002C049F001C048F000C047F06F
:1009A0004DB019D0422C17D0D8924AC055F049C04A
:1009B00054F048C053F047C052F0596A586A576A19
:1009C0007F0E566E63DD03C04AF002C049F001C0DD
:1009D00048F000C047F041C051F040C050F03FC067
:1009E0004FF03EC04EF0556A546A536A526AC9ECE1
:1009F00000F004E14A6A496A486A476A47C000F061
:100A000048C001F049C002F04AC003F012003DC0E6
:100A100041F03CC040F03BC03FF03AC03EF0010E18
:100A2000426E69DE7CEF05F03DC041F03CC040F015
:100A30003BC03FF03AC03EF0426A5DDEA0EF05F0F9
:100A400031C051F030C050F02FC04FF02EC04EF0EA
:100A5000556A546A536A526AC9EC00F0D8B49CD003
:100A60002DC04AF02CC049F02BC048F02AC047F0F6
:100A700031C04EF030C04DF02FC04CF02EC04BF0C6
:100A800004EC01F003C039F002C038F001C037F0C7
:100A900000C036F003C051F002C050F001C04FF06A
:100AA00000C04EF0556A546A536A526AC9EC00F0AD
:100AB00024E32DC04AF02CC049F02BC048F02AC0D6
:100AC00047F031C04EF030C04DF02FC04CF02EC07A
:100AD0004BF004EC01F003C039F002C038F001C063
:100AE00037F000C036F003C03DF002C03CF001C05A
:100AF0003BF000C03AF08BD723D02DC04AF02CC079
:100B000049F02BC048F02AC047F031C04EF030C049
:100B10004DF02FC04CF02EC04BF004EC01F003C0A0
:100B200039F002C038F001C037F000C036F003C021
:100B30003DF002C03CF001C03BF000C03AF074D779
:100B400003C035F002C034F001C033F000C032F011
:100B500035C051F034C050F033C04FF032C04EF0C9
:100B600031C055F030C054F02FC053F02EC052F0B9
:100B700014DCD8822DC055F02CC054F02BC053F09B
:100B80002AC052F003C059F002C058F001C057F01B
:100B900000C056F07BDC00D012008E0E006E45C007
:100BA00001F044C002F0036A45AE05D0011E021EEA
:100BB000022A01E1012A015209E102C001F0026AA0
:100BC000080E005E015202E1006A0AD0D89001BE10
:100BD00004D0023601360006F9D745BE01D0019E89
:100BE000120031C035F030C034F02FC033F02EC0C9
:100BF00032F035C051F034C050F033C04FF032C045
:100C00004EF0556A546A536A7F0E526EC9EC00F07A
:100C1000D8B486D1446A320EE96E44C0EAFF7E0E33
:100C2000EF6ED88235C055F034C054F033C053F065
:100C300032C052F0596A586A576A7F0E566E26DCE7
:100C400003C046F002C045F001C044F000C043F0CC
:100C5000D89235C055F034C054F033C053F032C090
:100C600052F0596A586A576A7F0E566E0FDC46C0BA
:100C70004AF045C049F044C048F043C047F003C0C3
:100C80004EF002C04DF001C04CF000C04BF004EC3F
:100C900001F003C035F002C034F001C033F000C0F1
:100CA00032F035C051F034C050F033C04FF032C094
:100CB0004EF035C055F034C054F033C053F032C05C
:100CC00052F0CDEC01F003C041F002C040F001C091
:100CD0003FF000C03EF0990E516E470E506E8A0EE6
:100CE0004F6E7F0E4E6E41C055F040C054F03FC075
:100CF00053F03EC052F0CDEC01F003C046F002C00C
:100D000045F001C044F000C043F0D89203C055F054
:100D100002C054F001C053F000C052F0596A586A42
:100D2000576A800E566E46EC02F003C039F002C0DE
:100D300038F001C037F000C036F04C0E516EF30EA3
:100D4000506E3A0E4F6E7B0E4E6E41C055F040C055
:100D500054F03FC053F03EC052F0CDEC01F003C060
:100D600046F002C045F001C044F000C043F0D89204
:100D700003C055F002C054F001C053F000C052F05F
:100D80002B0E596E9D0E586EDF0E576E7E0E566EF0
:100D900046EC02F003C03DF002C03CF001C03BF065
:100DA00000C03AF03DC051F03CC050F03BC04FF0A5
:100DB0003AC04EF041C055F040C054F03FC053F02F
:100DC0003EC052F0CDEC01F003C046F002C045F049
:100DD00001C044F000C043F0D89203C055F002C0F7
:100DE00054F001C053F000C052F0596A586A576A73
:100DF0007F0E566E46EC02F003C03DF002C03CF0A0
:100E000001C03BF000C03AF035C051F034C050F0A2
:100E100033C04FF032C04EF039C055F038C054F0F6
:100E200037C053F036C052F0CDEC01F003C046F0AD
:100E300002C045F001C044F000C043F003C04AF0D6
:100E400002C049F001C048F000C047F03DC04EF07C
:100E50003CC04DF03BC04CF03AC04BF004EC01F00C
:100E600003C039F002C038F001C037F000C036F0DE
:100E7000446A2E0EE96E44C0EAFF7E0EEF5C426EBD
:100E800042AE12D0000ED8804254456A446E44BE31
:100E9000450683DE00C03AF00150800A3B6E02C076
:100EA0003CF003C03DF00ED0456A42C044F044BE61
:100EB000450673DE03C03DF002C03CF001C03BF0CC
:100EC00000C03AF03DC051F03CC050F03BC04FF084
:100ED0003AC04EF0180E556E720E546E310E536EAF
:100EE0007E0E526ECDEC01F0D89239C055F038C06C
:100EF00054F037C053F036C052F003C059F002C06E
:100F000058F001C057F000C056F046EC02F003C0A4
:100F100039F002C038F001C037F000C036F004D01C
:100F2000396A386A376A366A36C000F037C001F06D
:100F300038C002F039C003F0120031C051F030C0A7
:100F400050F02FC04FF02EC04EF03B0E556EAA0E43
:100F5000546E380E536E7F0E526ECDEC01F003C00E
:100F600051F002C050F001C04FF000C04EF0B1ECA3
:100F700001F001C03EF03F9031C035F030C034F098
:100F80002FC033F02EC032F031C051F030C050F0DD
:100F90002FC04FF02EC04EF0556A546A536A526A01
:100FA000C9EC00F005E33F803E6C3350800A336E9D
:100FB000396A386A376A366A416A360EE96E41C064
:100FC000EAFF7F0E3E24EF6E35C051F034C050F082
:100FD00033C04FF032C04EF03B0E556EAA0E546E29
:100FE000380E536E7F0E526ECDEC01F003C043F00D
:100FF00002C042F001C041F000C040F0456A3EC06E
:1010000044F044BE4506C9DDD88243C055F042C015
:1010100054F041C053F040C052F003C059F002C038
:1010200058F001C057F000C056F046EC02F003C083
:1010300035F002C034F001C033F000C032F07C0E55
:10104000516E880E506E590E4F6E720E4E6E35C038
:1010500055F034C054F033C053F032C052F0CDECF0
:1010600001F003C043F002C042F001C041F000C0F3
:1010700040F0D89203C055F002C054F001C053F0C4
:1010800000C052F0E00E596E970E586E260E576E45
:10109000750E566E46EC02F003C03DF002C03CF007
:1010A00001C03BF000C03AF03DC051F03CC050F0F0
:1010B0003BC04FF03AC04EF035C055F034C054F04C
:1010C00033C053F032C052F0CDEC01F003C043F016
:1010D00002C042F001C041F000C040F0D89203C00D
:1010E00055F002C054F001C053F000C052F0C40EDD
:1010F000596E1D0E586E1E0E576E780E566E46ECCB
:1011000002F003C03DF002C03CF001C03BF000C063
:101110003AF03DC051F03CC050F03BC04FF03AC0F7
:101120004EF035C055F034C054F033C053F032C0E7
:1011300052F0CDEC01F003C043F002C042F001C018
:1011400041F000C040F0D89203C055F002C054F006
:1011500001C053F000C052F05E0E596E500E586E32
:10116000630E576E7A0E566E46EC02F003C03DF0E9
:1011700002C03CF001C03BF000C03AF03DC051F06D
:101180003CC050F03BC04FF03AC04EF035C055F077
:1011900034C054F033C053F032C052F0CDEC01F003
:1011A00003C043F002C042F001C041F000C040F073
:1011B000D89203C055F002C054F001C053F000C0F3
:1011C00052F01A0E596EFE0E586E750E576E7C0E4A
:1011D000566E46EC02F003C03DF002C03CF001C088
:1011E0003BF000C03AF03DC051F03CC050F03BC075
:1011F0004FF03AC04EF035C055F034C054F033C013
:1012000053F032C052F0CDEC01F003C043F002C005
:1012100042F001C041F000C040F0D89203C055F048
:1012200002C054F001C053F000C052F0180E596EC5
:10123000720E586E310E576E7E0E566E46EC02F0F0
:1012400003C03DF002C03CF001C03BF000C03AF0EA
:1012500035C051F034C050F033C04FF032C04EF0C2
:101260003DC055F03CC054F03BC053F03AC052F082
:10127000CDEC01F0D892556A546A536A7F0E526ED3
:1012800003C059F002C058F001C057F000C056F03A
:1012900046EC02F039C051F038C050F037C04FF082
:1012A00036C04EF003C055F002C054F001C053F0F8
:1012B00000C052F0CDEC01F003C039F002C038F0AC
:1012C00001C037F000C036F03FA017D04A6A496A23
:1012D000486A7F0E476E39C04EF038C04DF037C0B7
:1012E0004CF036C04BF004EC01F003C039F002C002
:1012F00038F001C037F000C036F036C000F037C01B
:1013000001F038C002F039C003F0120025C051F0DE
:1013100024C050F023C04FF022C04EF0556A546AEA
:10132000536A526AC9EC00F0D8A0CDD029C02DF084
:1013300028C02CF027C02BF026C02AF0316A306A72
:101340002F6A7F0E2E6E20EC05F003C02DF002C038
:101350002CF001C02BF000C02AF003C051F002C0F5
:1013600050F001C04FF000C04EF0556A546A536A05
:10137000526AC9EC00F0D8A4A6D029C02DF028C02C
:101380002CF027C02BF026C02AF0316A306A2F6A71
:10139000800E2E6E20EC05F003C02DF002C02CF064
:1013A00001C02BF000C02AF003C051F002C050F081
:1013B00001C04FF000C04EF0556A546A536A526A39
:1013C000C9EC00F03FE122C02AF02350800A2B6EC6
:1013D00024C02CF025C02DF025C031F024C030F001
:1013E0002F6E22C02EF0F1EC05F003C02DF002C0EC
:1013F0002CF001C02BF000C02AF003C051F002C055
:1014000050F001C04FF000C04EF029C055F028C088
:1014100054F027C053F026C052F0CDEC01F003C0C9
:101420002DF002C02CF001C02BF000C02AF003C048
:1014300031F002C030F001C02FF000C02EF07DDD91
:10144000D1D040D022C02AF02350800A2B6E24C075
:101450002CF025C02DF025C031F024C030F02F6EC7
:1014600022C02EF0F1EC05F003C02DF002C02CF0EC
:1014700001C02BF000C02AF003C051F002C050F0B0
:1014800001C04FF000C04EF029C055F028C054F004
:1014900027C053F026C052F0CDEC01F003C02DF070
:1014A00002C02CF001C02BF000C02AF003C031F0C4
:1014B00002C030F001C02FF000C02EF03EDD800EE3
:1014C000011A90D08FD025C051F024C050F023C015
:1014D0004FF022C04EF0556A546A536A526AC9EC02
:1014E00000F02CE329C02DF028C02CF027C02BF0F1
:1014F00026C02AF0316A306A2F6A7F0E2E6E20ECE9
:1015000005F003C02DF002C02CF001C02BF000C08C
:101510002AF003C051F002C050F001C04FF000C0EB
:101520004EF0556A546A536A526AC9EC00F006E0FC
:10153000006A016A026A036A55D054D025C051F08E
:1015400024C050F023C04FF022C04EF0556A546AB8
:10155000536A526AC9EC00F010E129C051F028C06A
:1015600050F027C04FF026C04EF0556A546A536AB7
:10157000526AC9EC00F001E235E125C031F024C027
:1015800030F023C02FF022C02EF0F1EC05F003C0A4
:101590002DF002C02CF001C02BF000C02AF003C0D7
:1015A00051F002C050F001C04FF000C04EF029C011
:1015B00055F028C054F027C053F026C052F0CDECAF
:1015C00001F003C02DF002C02CF001C02BF000C0D0
:1015D0002AF003C031F002C030F001C02FF000C08B
:1015E0002EF0ABDC25EF0CF029C02AF012EC00F055
:1015F00028C02AF012EC00F027C02AF012EC00F00C
:1016000026C02AF012EC00F0959C8C9C959C8C8C4A
:10161000A7EF0BF025C029F024C028F02B6A0A0E92
:101620002A6E8DEC00F000C026F003C027F003C046
:1016300003F00050F2CF28F0F29E02EC00F028BE3A
:10164000F28E076E25C029F024C028F02B6A0A0EFE
:101650002A6E8DEC00F002C027F001C026F002C017
:1016600029F001C028F02B6A0A0E2A6E8DEC00F0DA
:1016700000C026F003C027F003C003F00050F2CFF3
:1016800028F0F29E02EC00F028BEF28E086E25C013
:1016900029F024C028F02B6A640E2A6E8DEC00F02D
:1016A00002C027F001C026F002C029F001C028F0D6
:1016B0002B6A0A0E2A6E8DEC00F000C026F003C0E3
:1016C00027F003C003F00050F2CF28F0F29E02ECA6
:1016D00000F028BEF28E096E25C029F024C028F043
:1016E000030E2B6EE80E2A6E8DEC00F002C027F080
:1016F00001C026F002C029F001C028F02B6A0A0EB2
:101700002A6E8DEC00F000C026F003C027F003C065
:1017100003F00050F2CF28F0F29E02EC00F028BE59
:10172000F28E0A6E0A50C00809E10A680950C00822
:1017300005E109680850C00801E108680AC026F000
:1017400009C027F008C028F007C029F04DD7BCEF2A
:101750000BF021C051F020C050F01FC04FF01EC050
:101760004EF0B1EC01F002C023F001C022F023C022
:1017700025F022C024F04ED74DEF0CF0F86AD09E31
:10178000B886080EAF6E020EB06EA60EAC6E900E4E
:10179000AB6E046A0B6A0C6A0D6A0E6A176AC15056
:1017A000C00B0F09C16E070EB46E0F681068116888
:1017B000126813681468156816685CEF00F0C05072
:1017C000C00B0209C06EC08EC280C150C00B0C0994
:1017D000C16E080E016EC250C30B0110C26EC282F0
:1017E000C2B2FED7C3CF18F0C4CF19F0280E1E6EB8
:1017F00079EF00F0100E296EB50E286E19C02BF08F
:1018000018C02AF08DEC00F002C003F001C052F0C5
:1018100002C053F0AEEC00F003C021F002C020F093
:1018200001C01FF000C01EF003C025F002C024F06C
:1018300001C023F000C022F0680E296E910E286EC0
:101840000D0E276E7F0E266E61D503C01DF002C0FF
:101850001CF001C01BF000C01AF0516A506A200E43
:101860004F6E850E4E6E1DC055F01CC054F01BC04F
:1018700053F01AC052F0C9EC00F006E31D6A1C6A6E
:10188000200E1B6E850E1A6E1DC021F01CC020F0AC
:0E1890001BC01FF01AC01EF05CD7A1D70300CA
:020000040030CA
:0E00000027CC3E1E0087A1000FC00FE00F406E
:00000001FF
;PIC18F4550
;CRC=FE22  CREATED="20-Thg4-23 07:23"
