:10000000F4EF01F0F76A140FF66E000EF722090004
:10001000F550120080C094D4F76A280FF66E000ED7
:10002000F7220900F55012003F7FBFFF44494555B4
:10003000204B4849454E2042555A5A455200425598
:100040005A5A45523A204F464600202C2054473AEF
:1000500000004F4E20004F464600000E956E966EF3
:10006000956A8C680468056895928C9295908C903E
:10007000086A076A0FEF02F026C028F0276A2750A7
:1000800007080EE328BE02D08D9401D08D8496948B
:1000900096908D9096908D80D8902836272AEFD70D
:1000A0001200956A8C6A04B802D08C9801D08C88B2
:1000B000959804BC02D08C9C01D08C8C959C04B487
:1000C00002D08C9401D08C84959495928C8277EF99
:1000D00000F010C026F0D0DF0FC026F0CDDF0EC03C
:1000E00026F0CADF0DC026F0C7DF0494DAD7959654
:1000F0008C8695968C9695928C9286EF00F0245083
:100100000E6E0E1E25C00DF00D1EE3D712001A80D4
:100110001AC024F023C025F0F2DF1A901AC024F090
:1001200023C025F0ECDF12001A9422C023F0EFDF89
:10013000200E006E002EFED700D000001200EA6AEA
:10014000220EE96EEF500DE0060E016E006A002EE1
:10015000FED7012EFBD77B0E006E002EFED7EF2EB2
:10016000F3D712001A901A921A841A96380E226E39
:10017000DBDF420E006E002EFED700000C0E226E5A
:10018000D3DF420E006E002EFED70000010E226E5D
:10019000CBDF020E226ED3DF060E226EC5DF420ECB
:1001A000006E002EFED7000010EF02F0036A1F5011
:1001B000F2CF21F0F29E26DF21BEF28E2024216EA6
:1001C000226EB2DF12001A8421C023F0A0DF200EBD
:1001D000006E002EFED700D0000012000900F5527C
:1001E0000CE0F6CF1FF0F7CF20F0F5CF21F0EBDFDA
:1001F0001FC0F6FF20C0F7FFF1D712001F6A206A68
:10020000D5DF2C0EF66E000EF76EE8DF010E1F6EC6
:10021000206ACCDF200E006E002EFED700D000003A
:100220003E0EF66E000EF76ED9DF010E1F6E0B0E3E
:10023000206EBCDF200E006E002EFED700D0000026
:100240004A0EF66E000EF76EC9DF11EF02F0006A7B
:10025000016A2250D89023B000260032013223B226
:1002600000260032013223B400260032013223B6C8
:1002700000260032013223B800260032013223BAB0
:1002800000260032013223BC00260032013223BE98
:1002900000260032013287EF01F0206820C01FF0F5
:1002A000216A21BE03D02150030829E3036A2150AB
:1002B000F2CF22F0F29EB0DE22BEF28E936A8A6EF8
:1002C000938481B403D0206A1AD014D0938681B667
:1002D00004D0010E206E13D00DD0938881B804D0C5
:1002E000020E206E0CD006D0938A81BA03D0030E82
:1002F000206E05D01E0E226E22DF212AD2D7203C8E
:1003000001D008D021C022F0040E236EA0D72050C7
:1003100001241F6E1FC001F01200BFDF01C01BF0DF
:100320001B3C01D00FD0010E226E09DFB6DF01C0E9
:100330001BF0B3DF01C01CF01E0E226E00DF1B504D
:100340001C5CF7E01BC001F014EF02F0010E1F6E01
:10035000110E206E2BDF300E1E241F6E216E33DF38
:100360001200956A8C6A05BC02D08C9C01D08C8CE2
:10037000959C05B802D08C9801D08C88959805B4CE
:1003800002D08C9401D08C84959495908C80D5EF7C
:1003900001F007C01FF008C020F020C026F06CDE7E
:1003A0001FC026F069DE0594DCD795968C8695965D
:1003B0008C9695908C9012000880EBDF26EF02F06F
:1003C0001F502102F3CF01F0F4CF00F02202F350CE
:1003D000002620502102F3500020026E3EEF02F072
:1003E0000890D7DF4FEF02F0F86AD09E066A0D6AD8
:1003F0000E6A0F6A106A196A1B6A1C6AC150C00B28
:100400000F09C16E070EB46E116812681368146884
:100410001568166817681868010E1E6E1ED6A2D6DB
:10042000EDD63C0E936E79D701C01DF08FDF1D3CD9
:1004300001D045D01DBE03D01D50090803E31DC0E7
:100440001EF084DF1D500A083AE1B6D7010E1F6E78
:10045000080E206EABDE200E006E002EFED700D000
:100460000000520EF66E000EF76EB8DE030E206E20
:10047000E80E1F6E226A1EC021F0A2D702C020F033
:1004800001C01FF002C021F0212A2106D8B403D0F8
:10049000226855DEFAD71FC022F051DEA1D7010E27
:1004A0001F6E080E206E82DE200E006E002EFED71C
:1004B00000D00000560EF66E000EF76E8FDEB3D73A
:0204C000030037
:020000040030CA
:0E00000027CC3E1E0087A1000FC00FE00F406E
:00000001FF
;PIC18F4550
;CRC=5D25  CREATED="25-Thg3-23 21:14"
