:1000000057EF0DF0F76A140FF66E000EF722090095
:10001000F550120080C094D44C4D3335413A000065
:100020004C4D3335423A00004750324431323A00A9
:10003000636F756E7465723A00003A6A3A50070849
:100040000EE339BE02D08D9401D08D8496949690A3
:100050008D9096908D80D89039363A2AEFD712003D
:1000600033C034F032C035F034C039F0E6DF35C08B
:1000700039F0E3DF1200336A326AF2DF336A326A40
:10008000EFDF336A326AECDF336A326AE9DF959672
:100090008C8695968C9695988C8895988C98959A40
:1000A0008C8A959A8C9A959E8C8E959E8C9E959412
:1000B0008C8495948C9433683268D2DF33683268CC
:1000C000CFDF959C8C8C959C8C9C73EF00F0FF0E81
:1000D000926E3C0E936EF10E946E000E966E956EBF
:1000E000956A8C6AC8D7F19E066A056AC050C00B33
:1000F0000209C06EC08EC280C150C00B0C09C16E17
:1001000095908C907AEF0DF00EC039F096DF0DC00F
:1001100039F093DF0CC039F090DF0BC039F08DDF80
:1001200095948C8495948C949DEF00F037500C6ED0
:100130000C1E38C00BF00B1EE7D71200188018C039
:1001400037F036C038F0F2DF189018C037F036C0FC
:1001500038F0ECDF1200189435C036F0EFDF200ED7
:10016000006E002EFED700D000001200EA6A320EA8
:10017000E96EEF500DE0060E016E006A002EFED70C
:10018000012EFBD77B0E006E002EFED7EF2EF3D78D
:1001900012001890189218841896380E356EDBDF0E
:1001A000420E006E002EFED700000C0E356ED3DF1F
:1001B000420E006E002EFED70000010E356ECBDF22
:1001C000020E326ED3DF060E356EC5DF420E006EB4
:1001D000002EFED700008AEF0DF08E0E006E67C075
:1001E00001F066C002F0036A015209E102C001F0A9
:1001F000026A080E005E015202E1006A08D0D8903F
:1002000001BE04D0023601360006F9D7019E120065
:100210005B50D8B4A5D0676F5F50D8B4A1D0675FEA
:1002200005E37F0E6727D8B09BD006D0810E675FAD
:10023000D8A096D0D8B494D067C000F0016A026A02
:10024000036A666B5CC065F0658F5DC064F05EC07C
:1002500063F0190E676F6251635F0DE2010E645F18
:100260000AE2655F08E2665F06E2662B652B642B97
:100270006251632728D06151645F12E2010E655F0D
:100280000FE2665F0DE2662B652B615164276251B8
:10029000632719E3642B17E1652B15E1662B13D057
:1002A00060518009655F0EE2010E665F0BE2662B0E
:1002B00060518009652761516427E9E3652BE7E117
:1002C000662BE5D70380672F01D00BD0D89063371A
:1002D000643765376637D89003360236013668379B
:1002E000BAD768A106D0D8900132023203326833FF
:1002F00002D0000635E068BF1ED0D890633764375F
:10030000653766376251635F07E2010E645F04E29E
:10031000655F02E2665F1AE36151645F05E2010E08
:10032000655F02E2665F12E360518009655F03E288
:10033000010E665F0BE3032A09E1022A07E1012AA5
:1003400005E1002A0DE00132023203325CC067F0A1
:100350006051671B67AF02D0018E06D0019E04D0AA
:10036000006A016A026A036A12008E0E006E625110
:10037000005E63C002F064C001F0028E005209E02A
:10038000D890025202E1015204E002320132002E02
:10039000F7D763AF05D0011E021E012AD8B4022A86
:1003A0001200016A026A006A036A355002E13450A1
:1003B00018E0100E366ED8903236333600360336DB
:1003C0003550035C02E13450005C07E33450005EBA
:1003D000D8A003063550035ED88001360236362E8B
:1003E000EAD71200000E016EC250C30B0110C26E9C
:1003F000236A226A1F6A21501F5C0EE2C282C2B2C7
:10040000FED7C3502226C4502322A60E006E002E13
:10041000FED700001F2AEFD723C067F022C066F086
:10042000DCDE03C05EF002C05DF001C05CF000C025
:100430005BF0AA0E626FF10E616F020E606F800EAC
:100440005F6EE6DE03C065F002C064F001C063F0D9
:1004500000C062F08ADF02C023F001C022F023C096
:1004600033F022C032F0356A21C034F09ADF02C086
:1004700023F001C022F022C001F090EF0DF0040E35
:10048000016EC250C30B0110C26E256A246A1F6A36
:1004900021501F5C0EE2C282C2B2FED7C350242696
:1004A000C4502522A60E006E002EFED700001F2A83
:1004B000EFD725C067F024C066F08FDE03C05EF082
:1004C00002C05DF001C05CF000C05BF0AA0E626F7C
:1004D000F10E616F020E606F800E5F6E99DE03C0D9
:1004E00065F002C064F001C063F000C062F03DDF5F
:1004F00002C025F001C024F025C033F024C032F042
:10050000356A21C034F04DDF02C025F001C024F06F
:1005100092EF0DF0036A3250F2CF34F0F29E72DDAA
:1005200034BEF28E3324346E356E15DE120018841C
:1005300034C036F003DE200E006E002EFED700D051
:10054000000012000900F5520CE0F6CF32F0F7CFB0
:1005500033F0F5CF34F0EBDF32C0F6FF33C0F7FFF6
:10056000F1D712003350016A325C03E232C000F06E
:100570000CD0006A080E346E323600363350005C00
:10058000D8B0006E0136342EF7D7120023C033F0F6
:1005900022C032F0356A0A0E346E03DF02C027F043
:1005A00001C026F023C033F022C032F0356A0A0EB3
:1005B000346EF7DE00C028F003C029F0265205E1B2
:1005C000275203E1276A0A0E266E326A336AA2DFD7
:1005D000180EF66E000EF76EB5DF326A070E336E38
:1005E00099DF300E2624326E000E2720336E32C083
:1005F00034F09DDF300E2824326E000E2920336E39
:1006000032C034F094DF25C033F024C032F0356AB4
:100610000A0E346EC6DE02C02BF001C02AF025C0DF
:1006200033F024C032F0356A0A0E346EBADE00C0F0
:100630002CF003C02DF02A5205E12B5203E12B6A66
:100640000A0E2A6E326A0B0E336E64DF200EF66ECF
:10065000000EF76E77DF300E2A24326E000E2B204C
:10066000336E32C034F063DF300E2C24326E000E55
:100670002D20336E32C034F05ADF020E326E336AF0
:1006800049DF280EF66E000EF76E5CDF1EC065F0C7
:100690001DC064F01CC063F01BC062F066DE02C0C7
:1006A00033F001C032F0300E3226000E332232C059
:1006B00034F03DDF010E326E336A2CDF300EF66E01
:1006C000000EF76E3FDF010E326E0A0E336E22DF30
:1006D00020C032F00A0E336E45DF2F6A01C02EF0C3
:1006E00020C032F00A0E336E3DDF316A00C030F0B8
:1006F0002E5205E12F5203E12F68F00E2E6E300EC0
:100700002E24326E000E2F20336E32C034F00FDFF5
:10071000300E3024326E000E3120336E32C034F091
:1007200006DF94EF0DF063C06AF067516A1B6AAF91
:1007300005D0D894D89063BFD8802FD063C06AF01A
:1007400066C06BF062516B5F06E06AAF26D0D8508E
:10075000010AD86E22D067C06BF063516B5F06E070
:100760006AAF1BD0D850010AD86E17D068C06BF0A2
:1007700064516B5F06E06AAF10D0D850010AD86EA2
:100780000CD069C06BF065516B5F06E06AAF05D0B5
:10079000D850010AD86E01D0D89012006251D8B456
:1007A00071D0006E6651D8B46DD0002604E3810E7E
:1007B000002668E204D07F0E005E64E363E063C05D
:1007C0006AF067516A1B638F678F65516903F4CFC5
:1007D0006CF064516803F4CF03F0F3CF6BF069035E
:1007E000F3506C27F4506B23000E0322655168030D
:1007F000F3506C27F4506B23000E026A032202228E
:1008000063516903F3506B27F4500322000E022258
:1008100063516803F3500326F4500222000E016A6C
:10082000012265516703F3506B27F4500322000E39
:100830000222012264516703F3500326F45002227E
:10084000000E012263516703F3500226F450012287
:10085000002A01BE05D06B3703360236013600068A
:10086000000E6BAF0AD0032A02220122015005E1DB
:10087000025003E1035001E1002A6ABF018E6AAF12
:10088000019E04D0006A016A026A036A1200800EA7
:10089000D8B26B1B706B716B67C06FF06B516F1BC5
:1008A0006651D8B4DCD06E6F006E6A51D8B4E0D017
:1008B0006E5FD8B481D03DE36BC074F0748F6CC0B0
:1008C00073F06DC072F0716BD89074337333723300
:1008D00071336E2FF8D76FAF03D07081DDD0709178
:1008E0006E917089EA6A690EE96EE9D070996FBFFE
:1008F0000AD06EA113D07433733372337133002A6C
:10090000D8B4C5D00BD074BF0CD0D8907137723723
:10091000733774370006D8B4BAD0F5D7708D6BD062
:10092000709D67C06FF067AF02D0748FA9D0749FBD
:10093000A7D06AC06EF06AC000F066516E5F67C0F3
:1009400074F0748F68C073F069C072F0716BD890E6
:1009500074337333723371336E2FF8D76FAF03D0A4
:1009600070839AD070936E91708BEA6A6D0EE96E07
:10097000A6D0709B6FBF0AD06EA113D074337333AF
:1009800072337133002AD8B482D00BD074BF0CD02C
:10099000D89071377237733774370006D8B477D070
:1009A000F5D7708F28D0709F6BC06FF06BAF02D0FF
:1009B000748F66D0749F64D06BC074F0748F6CC0F9
:1009C00073F06DC072F06FAF04D0749F708564D007
:1009D0007095716B6E91EA6A690EE96E70D06FBFA7
:1009E0001CD067C06FF06EA106D0743373337233BE
:1009F0007133002A4CE071AF0BD0722B09E1732BDD
:100A000007E1742B05E1743373337233002A3FE03E
:100A100070BD86D770BFC7D71CD0800E741B74AF53
:100A200004D03AD06BC06FF00AD067C06FF0745337
:100A300006E1735304E1725302E1006A21D074BFEE
:100A400008D0D8907137723773377437002EF7D7C4
:100A50001ED06FAF02D0748F13D0749F11D06AC0B4
:100A600000F06BC074F06CC073F06DC072F008D011
:100A700066C000F067C074F068C073F069C072F0BF
:100A800074C001F073C002F072C003F034D0006A89
:100A9000016A026A036A2FD0716B721F731F741F81
:100AA000711F712B05E1722B03E1732B01E1742B94
:100AB00070B115D770B356D770B58AD7B3D7EF508A
:100AC000722705E3732B03E1742BD8B46E81ED52CA
:100AD000EF50732703E3742BD8B46E81ED52EF50BF
:100AE000EFBE01D0800A7427D8B06E8170B9FED6EF
:100AF00070BB3FD774D71200619155C05AF054C0F3
:100B000059F053C058F052C057F055C065F054C06A
:100B100064F053C063F052C062F0696B686B676B3E
:100B2000666B01DE04E361815850800A586E5AC03A
:100B300065F059C064F058C063F057C062F0696B4B
:100B4000686B676B8E0E666FEEDD01E218E15AC0CE
:100B500065F059C064F058C063F057C062F005DC1E
:100B600002C067F001C066F0EDEC00F003C05EF07B
:100B700002C05DF001C05CF000C05BF0C2D05AC0A2
:100B800065F059C064F058C063F057C062F0800E41
:100B9000696F960E686F180E676F960E666FC3DDED
:100BA000D8A0A7D05AC065F059C064F058C063F00F
:100BB00057C062F0696B686B676B700E666FEEDD35
:100BC00003C065F002C064F001C063F000C062F0D1
:100BD000B5EC01F002C060F001C05FF05AC065F0F2
:100BE00059C064F058C063F057C062F0696B686B1D
:100BF000676B700E666FD2DD03C065F002C064F0F3
:100C000001C063F000C062F060C067F05FC066F0D2
:100C1000EDEC00F0D88265C069F064C068F063C094
:100C200067F062C066F003C06DF002C06CF001C0F6
:100C30006BF000C06AF02BDE656B646B636B8E0E2D
:100C4000626F03C069F002C068F001C067F000C0C5
:100C500066F0A4DD03C05AF002C059F001C058F09C
:100C600000C057F060C067F05FC066F0EDEC00F0C8
:100C7000656B646B636B8E0E626F03C069F002C0BC
:100C800068F001C067F000C066F088DD03C05EF068
:100C900002C05DF001C05CF000C05BF05AC065F0BE
:100CA00059C064F058C063F057C062F0B5EC01F071
:100CB00002C067F001C066F0EDEC00F0D8925EC0B3
:100CC00069F05DC068F05CC067F05BC066F003C0AF
:100CD0006DF002C06CF001C06BF000C06AF0D7DDAF
:100CE00003C05EF002C05DF001C05CF000C05BF0CC
:100CF00008D05AC05EF059C05DF058C05CF057C0D3
:100D00005BF05AC065F059C064F058C063F057C03A
:100D100062F0B5EC01F002C067F001C066F0EDECE6
:100D200000F0D8825AC069F059C068F058C067F026
:100D300057C066F003C06DF002C06CF001C06BF0EC
:100D400000C06AF0A4DD03C05AF002C059F001C02F
:100D500058F000C057F061A103D05C50800A5C6E6F
:100D60005AC065F059C064F058C063F057C062F0D3
:100D7000696B686B676B666BD6DC36E061A119D076
:100D8000565217E1D8825EC069F05DC068F05CC061
:100D900067F05BC066F06D6B6C6B6B6B7F0E6A6FA0
:100DA00076DD03C05EF002C05DF001C05CF000C003
:100DB0005BF061B119D0562C17D0D8925EC069F0A3
:100DC0005DC068F05CC067F05BC066F06D6B6C6B1B
:100DD0006B6B7F0E6A6F5BDD03C05EF002C05DF07F
:100DE00001C05CF000C05BF055C065F054C064F019
:100DF00053C063F052C062F0696B686B676B666BDF
:100E000092DC04E15E6A5D6A5C6A5B6A5BC000F06A
:100E10005CC001F05DC002F05EC003F0120051C082
:100E200055F050C054F04FC053F04EC052F0010E78
:100E3000566E62DE82EF07F051C055F050C054F09C
:100E40004FC053F04EC052F0566A56DEA6EF07F080
:100E500045C065F044C064F043C063F042C062F036
:100E6000696B686B676B666B5EDCD8B49BD041C006
:100E70005EF040C05DF03FC05CF03EC05BF045C03E
:100E800062F044C061F043C060F042C05FF008EC23
:100E900001F003C04DF002C04CF001C04BF000C0A7
:100EA0004AF003C065F002C064F001C063F000C006
:100EB00062F0696B686B676B666B35DC24E341C07D
:100EC0005EF040C05DF03FC05CF03EC05BF045C0EE
:100ED00062F044C061F043C060F042C05FF008ECD3
:100EE00001F003C04DF002C04CF001C04BF000C057
:100EF0004AF003C051F002C050F001C04FF000C0F2
:100F00004EF08DD723D041C05EF040C05DF03FC0B1
:100F10005CF03EC05BF045C062F044C061F043C08D
:100F200060F042C05FF008EC01F003C04DF002C079
:100F30004CF001C04BF000C04AF003C051F002C0B9
:100F400050F001C04FF000C04EF076D703C049F01A
:100F500002C048F001C047F000C046F049C065F04B
:100F600048C064F047C063F046C062F045C069F015
:100F700044C068F043C067F042C066F00FDCD8821E
:100F800041C069F040C068F03FC067F03EC066F005
:100F900003C06DF002C06CF001C06BF000C06AF0DD
:100FA00076DC00D012008E0E006E59C001F058C0E1
:100FB00002F0036A59AE05D0011E021E022A01E1A9
:100FC000012A015209E102C001F0026A080E005E26
:100FD000015202E1006A0AD0D89001BE04D0023664
:100FE00001360006F9D759BE01D0019E120045C056
:100FF00049F044C048F043C047F042C046F049C001
:1010000065F048C064F047C063F046C062F0696BA9
:10101000686B676B7F0E666F93EC03F0D8B486D174
:10102000586A460EE96E58C0EAFF7E0EEF6ED8820F
:1010300049C069F048C068F047C067F046C066F034
:101040006D6B6C6B6B6B7F0E6A6F21DC03C05AF0AB
:1010500002C059F001C058F000C057F0D89249C002
:1010600069F048C068F047C067F046C066F06D6B35
:101070006C6B6B6B7F0E6A6F0ADC5AC05EF059C0F6
:101080005DF058C05CF057C05BF003C062F002C076
:1010900061F001C060F000C05FF008EC01F003C037
:1010A00049F002C048F001C047F000C046F049C016
:1010B00065F048C064F047C063F046C062F049C0C4
:1010C00069F048C068F047C067F046C066F0CEECF3
:1010D00003F003C055F002C054F001C053F000C04B
:1010E00052F0990E656F470E646F8A0E636F7F0E24
:1010F000626F55C069F054C068F053C067F052C0C9
:1011000066F0CEEC03F003C05AF002C059F001C003
:1011100058F000C057F0D89203C069F002C068F0E0
:1011200001C067F000C066F06D6B6C6B6B6B800E7E
:101130006A6F47EC04F003C04DF002C04CF001C0F0
:101140004BF000C04AF04C0E656FF30E646F3A0E20
:10115000636F7B0E626F55C069F054C068F053C076
:1011600067F052C066F0CEEC03F003C05AF002C044
:1011700059F001C058F000C057F0D89203C069F090
:1011800002C068F001C067F000C066F02B0E6D6F02
:101190009D0E6C6FDF0E6B6F7E0E6A6F47EC04F076
:1011A00003C051F002C050F001C04FF000C04EF03B
:1011B00051C065F050C064F04FC063F04EC062F0A3
:1011C00055C069F054C068F053C067F052C066F073
:1011D000CEEC03F003C05AF002C059F001C058F041
:1011E00000C057F0D89203C069F002C068F001C097
:1011F00067F000C066F06D6B6C6B6B6B7F0E6A6F97
:1012000047EC04F003C051F002C050F001C04FF0B1
:1012100000C04EF049C065F048C064F047C063F0BC
:1012200046C062F04DC069F04CC068F04BC067F03A
:101230004AC066F0CEEC03F003C05AF002C059F089
:1012400001C058F000C057F003C05EF002C05DF06E
:1012500001C05CF000C05BF051C062F050C061F0B2
:101260004FC060F04EC05FF008EC01F003C04DF0DD
:1012700002C04CF001C04BF000C04AF0586A420E68
:10128000E96E58C0EAFF7E0EEF5C566E56AE12D085
:10129000000ED8805654596A586E58BE590683DEDF
:1012A00000C04EF00150800A4F6E02C050F003C0E3
:1012B00051F00ED0596A56C058F058BE590673DE28
:1012C00003C051F002C050F001C04FF000C04EF01A
:1012D00051C065F050C064F04FC063F04EC062F082
:1012E000180E696F720E686F310E676F7E0E666F33
:1012F000CEEC03F0D8924DC069F04CC068F04BC002
:1013000067F04AC066F003C06DF002C06CF001C027
:101310006BF000C06AF047EC04F003C04DF002C06F
:101320004CF001C04BF000C04AF004D04D6A4C6A4A
:101330004B6A4A6A4AC000F04BC001F04CC002F050
:101340004DC003F0120045C065F044C064F043C0D6
:1013500063F042C062F03B0E696FAA0E686F380EF0
:10136000676F7F0E666FCEEC03F003C065F002C0BE
:1013700064F001C063F000C062F0B5EC01F001C0A0
:1013800052F0539045C049F044C048F043C047F084
:1013900042C046F045C065F044C064F043C063F00D
:1013A00042C062F0696B686B676B666B93EC03F02D
:1013B00005E35380526C4750800A476E4D6A4C6A71
:1013C0004B6A4A6A556A4A0EE96E55C0EAFF7F0EBB
:1013D0005224EF6E49C065F048C064F047C063F026
:1013E00046C062F03B0E696FAA0E686F380E676FD9
:1013F0007F0E666FCEEC03F003C057F002C056F0CC
:1014000001C055F000C054F0596A52C058F058BE9F
:101410005906C9DDD88257C069F056C068F055C07A
:1014200067F054C066F003C06DF002C06CF001C0FC
:101430006BF000C06AF047EC04F003C049F002C052
:1014400048F001C047F000C046F07C0E656F880E82
:10145000646F590E636F720E626F49C069F048C0C5
:1014600068F047C067F046C066F0CEEC03F003C0FA
:1014700057F002C056F001C055F000C054F0D892A9
:1014800003C069F002C068F001C067F000C066F0F8
:10149000E00E6D6F970E6C6F260E6B6F750E6A6F98
:1014A00047EC04F003C051F002C050F001C04FF00F
:1014B00000C04EF051C065F050C064F04FC063F002
:1014C0004EC062F049C069F048C068F047C067F09C
:1014D00046C066F0CEEC03F003C057F002C056F0F1
:1014E00001C055F000C054F0D89203C069F002C0AA
:1014F00068F001C067F000C066F0C40E6D6F1D0E8D
:101500006C6F1E0E6B6F780E6A6F47EC04F003C0B1
:1015100051F002C050F001C04FF000C04EF051C079
:1015200065F050C064F04FC063F04EC062F049C037
:1015300069F048C068F047C067F046C066F0CEEC7E
:1015400003F003C057F002C056F001C055F000C0D0
:1015500054F0D89203C069F002C068F001C067F08F
:1015600000C066F05E0E6D6F500E6C6F630E6B6F99
:101570007A0E6A6F47EC04F003C051F002C050F0DD
:1015800001C04FF000C04EF051C065F050C064F093
:101590004FC063F04EC062F049C069F048C068F0C7
:1015A00047C067F046C066F0CEEC03F003C057F0CA
:1015B00002C056F001C055F000C054F0D89203C0EC
:1015C00069F002C068F001C067F000C066F01A0E52
:1015D0006D6FFE0E6C6F750E6B6F7C0E6A6F47EC55
:1015E00004F003C051F002C050F001C04FF000C041
:1015F0004EF051C065F050C064F04FC063F04EC073
:1016000062F049C069F048C068F047C067F046C062
:1016100066F0CEEC03F003C057F002C056F001C0F4
:1016200055F000C054F0D89203C069F002C068F0D1
:1016300001C067F000C066F0180E6D6F720E6C6F1F
:10164000310E6B6F7E0E6A6F47EC04F003C051F0F1
:1016500002C050F001C04FF000C04EF049C065F02C
:1016600048C064F047C063F046C062F051C069F002
:1016700050C068F04FC067F04EC066F0CEEC03F08B
:10168000D892696B686B676B7F0E666F03C06DF0F5
:1016900002C06CF001C06BF000C06AF047EC04F0CF
:1016A0004DC065F04CC064F04BC063F04AC062F0BE
:1016B00003C069F002C068F001C067F000C066F0C6
:1016C000CEEC03F003C04DF002C04CF001C04BF073
:1016D00000C04AF053A017D05E6A5D6A5C6A7F0E54
:1016E0005B6E4DC062F04CC061F04BC060F04AC010
:1016F0005FF008EC01F003C04DF002C04CF001C0F7
:101700004BF000C04AF04AC000F04BC001F04CC0A2
:1017100002F04DC003F0120039C065F038C064F02B
:1017200037C063F036C062F0696B686B676B666BDD
:1017300093EC03F0D8A0CDD03DC041F03CC040F0C8
:101740003BC03FF03AC03EF0456A446A436A7F0EB0
:10175000426E28EC07F003C041F002C040F001C027
:101760003FF000C03EF003C065F002C064F001C06D
:1017700063F000C062F0696B686B676B666B93EC3B
:1017800003F0D8A4A6D03DC041F03CC040F03BC01F
:101790003FF03AC03EF0456A446A436A800E426EAA
:1017A00028EC07F003C041F002C040F001C03FF058
:1017B00000C03EF003C065F002C064F001C063F0F9
:1017C00000C062F0696B686B676B666B93EC03F04B
:1017D0003FE136C03EF03750800A3F6E38C040F0DF
:1017E00039C041F039C045F038C044F0436E36C0CE
:1017F00042F0F7EC07F003C041F002C040F001C036
:101800003FF000C03EF003C065F002C064F001C0CC
:1018100063F000C062F03DC069F03CC068F03BC0BE
:1018200067F03AC066F0CEEC03F003C041F002C0AE
:1018300040F001C03FF000C03EF003C045F002C0E0
:1018400044F001C043F000C042F07DDDD1D040D073
:1018500036C03EF03750800A3F6E38C040F039C085
:1018600041F039C045F038C044F0436E36C042F014
:10187000F7EC07F003C041F002C040F001C03FF0B8
:1018800000C03EF003C065F002C064F001C063F028
:1018900000C062F03DC069F03CC068F03BC067F03A
:1018A0003AC066F0CEEC03F003C041F002C040F055
:1018B00001C03FF000C03EF003C045F002C044F05C
:1018C00001C043F000C042F03EDD800E011A90D00E
:1018D0008FD039C065F038C064F037C063F036C0CF
:1018E00062F0696B686B676B666B93EC03F02CE3DB
:1018F0003DC041F03CC040F03BC03FF03AC03EF03C
:10190000456A446A436A7F0E426E28EC07F003C0C2
:1019100041F002C040F001C03FF000C03EF003C003
:1019200065F002C064F001C063F000C062F0696B52
:10193000686B676B666B93EC03F006E0006A016A04
:10194000026A036A55D054D039C065F038C064F0DB
:1019500037C063F036C062F0696B686B676B666BAB
:1019600093EC03F010E13DC065F03CC064F03BC077
:1019700063F03AC062F0696B686B676B666B93ECFF
:1019800003F001E235E139C045F038C044F037C01A
:1019900043F036C042F0F7EC07F003C041F002C05C
:1019A00040F001C03FF000C03EF003C065F002C04F
:1019B00064F001C063F000C062F03DC069F03CC05B
:1019C00068F03BC067F03AC066F0CEEC03F003C0AD
:1019D00041F002C040F001C03FF000C03EF003C043
:1019E00045F002C044F001C043F000C042F0ABDC5F
:1019F00036EF0DF0080E016EC250C30B0110C26E1F
:101A0000C282C2B2FED7C3CF19F0C4CF1AF0280EDB
:101A1000326EB6EC00F0100E336EB50E326E1AC098
:101A200035F019C034F0D1EC01F002C003F001C070
:101A300066F002C067F0EDEC00F003C035F002C0C4
:101A400034F001C033F000C032F003C039F002C0FE
:101A500038F001C037F000C036F0680E3D6E910ED0
:101A60003C6E0D0E3B6E7F0E3A6E56D603C01EF0D6
:101A700002C01DF001C01CF000C01BF0656B646B60
:101A8000200E636F850E626F1EC069F01DC068F086
:101A90001CC067F01BC066F093EC03F006E31E6AFF
:101AA0001D6A200E1C6E850E1B6E95EF0DF0F86AF8
:101AB000D09EB886080EAF6E020EB06EA60EAC6E4B
:101AC000900EAB6E046A0B6A0C6A0D6A0E6A176A96
:101AD000640E216EC150C00B0F09C16E070EB46EAB
:101AE0000F68106811681268136814681568166822
:101AF00067EF00F0C050C00B0209C06EC08EC280FC
:101B0000C150C00B0D09C16EC150C00B0C09C16E94
:101B1000C9EF00F0E80ED56ED76AD66AF2EF01F091
:101B20003FEF02F0C6EF02F065D7D650206E20508E
:0E1B3000640803E2D76A010ED66EF0D70300F8
:020000040030CA
:0E00000027CC3E1E0087A1000FC00FE00F406E
:00000001FF
;PIC18F4550
;CRC=80BD  CREATED="20-Thg4-23 07:24"
