:1000000047EF03F0F76A140FF66E000EF7220900AF
:10001000F5501200C0F9A4B0999282F880908883BC
:10002000C6A1868E000E956E966E956A8C680468E1
:10003000056895928C9295908C90086A076A5EEF9D
:1000400003F08E0E006E2750005E28C002F029C01B
:1000500001F0028E005209E0D890025202E10152F2
:1000600004E002320132002EF7D728AE05D0011E7F
:10007000021E012AD8B4022A77EF03F0EA6A270E9B
:10008000E96EEF500DE0060E016E006A002EFED7FD
:10009000012EFBD77B0E006E002EFED7EF2EF3D77E
:1000A0008BEF03F0016A026A006A036A2E5002E1D4
:1000B0002D5018E0100E2F6ED8902B362C360036AF
:1000C00003362E50035C02E12D50005C07E32D50F7
:1000D000005ED8A003062E50035ED880013602369B
:1000E0002F2EEAD712008E0E006E28C001F027C016
:1000F00002F0036A015209E102C001F0026A080E2F
:10010000005E015202E1006A08D0D89001BE04D01E
:10011000023601360006F9D7019E12002750D8B4E6
:10012000A5D0336E2B50D8B4A1D0335E05E37F0E3B
:100130003326D8B09BD006D0810E335ED8A096D09F
:10014000D8B494D033C000F0016A026A036A326AFC
:1001500028C031F0318E29C030F02AC02FF0190E9E
:10016000336E2E502F5E0DE2010E305E0AE2315EDC
:1001700008E2325E06E2322A312A302A2E502F2639
:1001800028D02D50305E12E2010E315E0FE2325E59
:100190000DE2322A312A2D5030262E502F2619E317
:1001A000302A17E1312A15E1322A13D02C50800968
:1001B000315E0EE2010E325E0BE2322A2C508009D3
:1001C00031262D503026E9E3312AE7E1322AE5D7FE
:1001D0000380332E01D00BD0D8902F3630363136F5
:1001E0003236D8900336023601363436BAD734A0C8
:1001F00006D0D890013202320332343202D00006E7
:1002000035E034BE1ED0D8902F36303631363236F7
:100210002E502F5E07E2010E305E04E2315E02E2F4
:10022000325E1AE32D50305E05E2010E315E02E2CD
:10023000325E12E32C508009315E03E2010E325E21
:100240000BE3032A09E1022A07E1012A05E1002A5A
:100250000DE001320232033228C033F02C50331A41
:1002600033AE02D0018E06D0019E04D0006A016A2E
:10027000026A036A1200800ED8B22C1A316A326AFE
:1002800028C030F02C50301A2750D8B4DCD02F6E54
:10029000006E2B50D8B4E0D02F5ED8B481D03DE3AF
:1002A0002CC035F0358E2DC034F02EC033F0326ABC
:1002B000D89035323432333232322F2EF8D730AE36
:1002C00003D03180DDD031902F903188EA6A2A0E38
:1002D000E96EE9D0319830BE0AD02FA013D0353264
:1002E000343233323232002AD8B4C5D00BD035BEC6
:1002F0000CD0D89032363336343635360006D8B482
:10030000BAD0F5D7318C6BD0319C28C030F028AEF4
:1003100002D0358EA9D0359EA7D02BC02FF02BC090
:1003200000F027502F5E28C035F0358E29C034F0FC
:100330002AC033F0326AD890353234323332323216
:100340002F2EF8D730AE03D031829AD031922F9031
:10035000318AEA6A2E0EE96EA6D0319A30BE0AD0F2
:100360002FA013D03532343233323232002AD8B48F
:1003700082D00BD035BE0CD0D890323633363436DE
:1003800035360006D8B477D0F5D7318E28D0319ED7
:100390002CC030F02CAE02D0358E66D0359E64D0A5
:1003A0002CC035F0358E2DC034F02EC033F030AE79
:1003B00004D0359E318464D03194326A2F90EA6A39
:1003C0002A0EE96E70D030BE1CD028C030F02FA0AD
:1003D00006D03532343233323232002A4CE032AE7B
:1003E0000BD0332A09E1342A07E1352A05E13532F9
:1003F00034323332002A3FE031BC86D731BEC7D712
:100400001CD0800E351A35AE04D03AD02CC030F056
:100410000AD028C030F0355206E1345204E133529C
:1004200002E1006A21D035BE08D0D890323633368A
:1004300034363536002EF7D71ED030AE02D0358E8A
:1004400013D0359E11D02BC000F02CC035F02DC03C
:1004500034F02EC033F008D027C000F028C035F0AB
:1004600029C034F02AC033F035C001F034C002F0A6
:1004700033C003F034D0006A016A026A036A2FD0E5
:10048000326A331E341E351E321E322A05E1332AEB
:1004900003E1342A01E1352A31B015D731B256D7FC
:1004A00031B48AD7B3D7EF50332605E3342A03E1BA
:1004B000352AD8B42F80ED52EF50342603E3352A85
:1004C000D8B42F80ED52EF50EFBE01D0800A352610
:1004D000D8B02F8031B8FED631BA3FD774D71200CA
:1004E0002DC02FF02E6A2E5007080EE32FBE02D02B
:1004F0008D9401D08D84969496908D9096908D8059
:10050000D8902F362E2AEFD71200956A8C6A04B83D
:1005100002D08C9801D08C88959804BC02D08C9C19
:1005200001D08C8C959C04B402D08C9401D08C8426
:10053000959495928C82ABEF02F02CC02DF0D0DF19
:100540002BC02DF0CDDF2AC02DF0CADF29C02DF041
:10055000C7DF049CDAD7959E8C9E959E8C8E9592D3
:100560008C9245EF03F028C02CF027C02BF02E6AA8
:100570000A0E2D6E97DD00C029F003C02AF003C0DB
:1005800003F00050F2CF2BF0F29E3CDD2BBEF28E3A
:10059000096E28C02CF027C02BF02E6A0A0E2D6E93
:1005A00081DD02C02AF001C029F002C02CF001C098
:1005B0002BF02E6A0A0E2D6E75DD00C029F003C0E7
:1005C0002AF003C003F00050F2CF2BF0F29E1ADDA8
:1005D0002BBEF28E0A6E28C02CF027C02BF02E6A9C
:1005E000640E2D6E5FDD02C02AF001C029F002C04A
:1005F0002CF001C02BF02E6A0A0E2D6E53DD00C0C8
:1006000029F003C02AF003C003F00050F2CF2BF012
:10061000F29EF8DC2BBEF28E0B6E28C02CF027C0A9
:100620002BF0030E2E6EE80E2D6E3CDD02C02AF07C
:1006300001C029F002C02CF001C02BF02E6A0A0E76
:100640002D6E30DD00C029F003C02AF003C003F096
:100650000050F2CF2BF0F29ED5DC2BBEF28E0C6E4A
:100660000C50C00809E10C680B50C00805E10B688C
:100670000A50C00801E10A680CC029F00BC02AF03A
:100680000AC02BF009C02CF058D7F5EF05F0F86A36
:10069000D09E066A0D6A0E6A0F6A106A196AC15006
:1006A000C00B0F09C16E070EB46E11681268136893
:1006B00014681568166817681868B4D4C050C00B61
:1006C0000209C06EC08EC280C150C00B0C09C16E41
:1006D000080E016EC250C30B0110C26E22C02AF078
:1006E00021C029F020C028F01FC027F0AAD402C0E2
:1006F0001EF001C01DF01C6A1B6A1A6A1A5013080A
:100700000CE3C282C2B2FED7C3501B26C4501C22C7
:100710000A0E276EB3D41A2AF1D71CC02CF01BC0C6
:100720002BF02E6A140E2D6EBDDC02C01CF001C031
:100730001BF01C520AE11B50500807E3226A216A91
:10074000200E206E850E1F6E4BD21C5203E11B50F3
:10075000500841E21C523FE11B5056083CE3500E4A
:100760001B5C006E000E1C58036E00C027F0286E44
:10077000BADC03C026F002C025F001C024F000C09E
:1007800023F026C02AF025C029F024C028F023C079
:1007900027F0B80E2E6E1E0E2D6E450E2C6E7E0EA0
:1007A0002B6EBCDCD8822A6A296A200E286E850E40
:1007B000276E03C02EF002C02DF001C02CF000C047
:1007C0002BF059DD03C022F002C021F001C020F05F
:1007D00000C01FF005D21B50570809E11C5207E169
:1007E000226A216A0C0E206E850E1F6EF9D11C52F2
:1007F00003E11B50570841E21C523FE11B506908BE
:100800003CE3570E1B5C006E000E1C58036E00C0CC
:1008100027F0286E68DC03C026F002C025F001C076
:1008200024F000C023F026C02AF025C029F024C0FF
:1008300028F023C027F03D0E2E6E0A0E2D6E070EF7
:100840002C6E800E2B6E6ADCD8822A6A296A0C0E06
:10085000286E850E276E03C02EF002C02DF001C059
:100860002CF000C02BF007DD03C022F002C021F005
:1008700001C020F000C01FF0B3D11B506A0809E18D
:100880001C5207E1226A216A700E206E840E1F6ED0
:10089000A7D11C5203E11B506A083EE21C523CE106
:1008A0001B507B0839E36A0E1B5C006E000E1C585F
:1008B000036E00C027F0286E16DC03C026F002C0CD
:1008C00025F001C024F000C023F026C02AF025C086
:1008D00029F024C028F023C027F02E6A2D6A2C6A44
:1008E000800E2B6E1BDCD8822A6A296A700E286E55
:1008F000840E276E03C02EF002C02DF001C02CF034
:1009000000C02BF0B8DC03C022F002C021F001C00F
:1009100020F000C01FF064D11B507C0809E11C527C
:1009200007E1226A216A480E206E840E1F6E58D19C
:100930001C5203E11B507C0843E21C5241E11B5056
:1009400095083EE37C0E1B5C006E000E1C58036E87
:1009500000C027F0286E73EC00F003C026F002C040
:1009600025F001C024F000C023F026C02AF025C0E5
:1009700029F024C028F023C027F0EC0E2E6E510E73
:100980002D6E380E2C6E800E2B6E8EEC00F0D88201
:100990002A6A296A480E286E840E276E03C02EF03C
:1009A00002C02DF001C02CF000C02BF064DC03C0AD
:1009B00022F002C021F001C020F000C01FF010D1D1
:1009C0001B50960809E11C5207E1226A216A200E99
:1009D000206E840E1F6E04D11C5203E11B5096083A
:1009E00043E21C5241E11B50C3083EE3960E1B5CE0
:1009F000006E000E1C58036E00C027F0286E73ECCA
:100A000000F003C026F002C025F001C024F000C0B1
:100A100023F026C02AF025C029F024C028F023C0E6
:100A200027F01F0E2E6E850E2D6E230E2C6E810E5E
:100A30002B6E8EEC00F0D8822A6A296A200E286E6E
:100A4000840E276E03C02EF002C02DF001C02CF0E2
:100A500000C02BF010DC03C022F002C021F001C066
:100A600020F000C01FF0BCD01B50C40809E11C528C
:100A700007E1226A216A700E206E830E1F6EB0D0CD
:100A80001C5203E11B50C40846E21C50010843E31A
:100A900003E11B5013083FE3C40E1B5C006E000E05
:100AA0001C58036E00C027F0286E73EC00F003C0E2
:100AB00026F002C025F001C024F000C023F026C0BB
:100AC0002AF025C029F024C028F023C027F07B0E8F
:100AD0002E6E140E2D6E0E0E2C6E820E2B6E8EEC64
:100AE00000F0D8822A6A296A700E286E830E276E5B
:100AF00003C02EF002C02DF001C02CF000C02BF07E
:100B00003BEC01F003C022F002C021F001C020F054
:100B100000C01FF065D01B50140809E11C2C07D041
:100B2000226A216A200E206E830E1F6E59D01C503F
:100B300000084BE2FF0A03E11B50140846E21C5078
:100B4000010843E303E11B50E9083FE3140E1B5C7B
:100B5000006E010E1C58036E00C027F0286E73EC67
:100B600000F003C026F002C025F001C024F000C050
:100B700023F026C02AF025C029F024C028F023C085
:100B800027F0F60E2E6E280E2D6E3E0E2C6E830E66
:100B90002B6E8EEC00F0D8822A6A296A200E286E0D
:100BA000830E276E03C02EF002C02DF001C02CF082
:100BB00000C02BF03BEC01F003C022F002C021F09A
:100BC00001C020F000C01FF00BD01B50EA0808E164
:100BD0001C2C06D0226A216A200E206E820E1F6E07
:0E0BE0001EC028F01DC027F0BED478D503003B
:020000040030CA
:0E00000027CC3E1E0087A1000FC00FE00F406E
:00000001FF
;PIC18F4550
;CRC=00E9  CREATED="22-Thg4-23 17:06"
