:10000000D9EF01F0F76A140FF66E000EF72209001F
:10001000F55012000001020503040102200307034A
:10002000060602050303060602030304070307206E
:100030002007070606030304000606050304010162
:10004000072020070006020503040006020303043C
:10005000202020202020F76A660FF66E000EF7227F
:100060000900F5501200070F1F1F1F1F1F1F1F1F22
:100070001F00000000001C1E1F1F1F1F1F1F00006D
:100080000000001F1F1F1F1F1F1F1F1F1E1C1F1FE1
:100090001F1F1F1F0F071F1F1F0000001F1F1F1FF5
:1000A0001F1F1F1F1F1FF76AB60FF66E000EF722E5
:1000B0000900F550120080C094D464656D207475F9
:1000C000203030202D2039390000286A28500708B8
:1000D0000EE327BE02D08D9401D08D849694969025
:1000E0008D9096908D80D8902736282AEFD71200D1
:1000F0001CC01DF01BC01EF01DC027F0E6DF1EC097
:1001000027F0E3DF12001C6A1B6AF2DF1C6A1B6A1D
:10011000EFDF1C6A1B6AECDF1C6A1B6AE9DF95963D
:100120008C8695968C9695988C8895988C98959AAF
:100130008C8A959A8C9A959E8C8E959E8C9E959481
:100140008C8495948C941C681B68D2DF1C681B6897
:10015000CFDF959C8C8C959C8C9CBBEF00F0FF0EA8
:10016000926E3C0E936EF10E946E000E966E956E2E
:10017000956A8C6AC8D7F19E066A056AC050C00BA2
:100180000209C06EC08EC280C150C00B0C09C16E86
:1001900095908C90F9EF01F00EC027F096DF0DC01E
:1001A00027F093DF0CC027F090DF0BC027F08DDF26
:1001B00095948C8495948C94E5EF00F025500C6E0A
:1001C0000C1E26C00BF00B1EE7D71200188018C0BB
:1001D00025F024C026F0F2DF189018C025F024C0C6
:1001E00026F0ECDF1200189423C024F0EFDF200E7D
:1001F000006E002EFED700D000001200EA6A1B0E2F
:10020000E96EEF500DE0060E016E006A002EFED77B
:10021000012EFBD77B0E006E002EFED7EF2EF3D7FC
:100220002CEF01F01890189218841896380E236E4F
:10023000DADF420E006E002EFED700000C0E236E99
:10024000D2DF420E006E002EFED70000010E236E9C
:10025000CADF020E1B6ED2D7060E236EC4DF420E1B
:10026000006E002EFED70000FAEF01F0036A205066
:10027000F2CF22F0F29E17DF22BEF28E2124226EF0
:10028000236EB1DF1200188420C024F09FDF200EFF
:10029000006E002EFED700D0000012000900F552BB
:1002A0000CE0F6CF1BF0F7CF1CF0F5CF20F0EBDF22
:1002B0001BC0F6FF1CC0F7FFF1D702EF02F0006A87
:1002C000016A1F50D89020B000260032013220B2BF
:1002D00000260032013220B400260032013220B65E
:1002E00000260032013220B800260032013220BA46
:1002F00000260032013220BC00260032013220BE2E
:100300000026003201329FEF01F01DC020F01EC018
:1003100021F0ACDF196A19BE03D01950050824E397
:100320001950030807E1010E1D241F6E206E1EC028
:1003300021F09CDF1CC01FF0060E206EC0D70150BC
:10034000206A1F6E036A19501F24016E2050032279
:100350000150F2CF1FF0F29E55DE1FBEF28E1F6ECF
:10036000206E91DF192AD7D712001C501D18800B60
:100370001F6E1CAE02D01C1E1C2A1DAE02D01D1EFC
:100380001D2A1D50016A1C5C03E21CC000F00CD049
:10039000006A080E1E6E1C3600361D50005CD8B078
:1003A000006E01361E2EF7D71FAE02D0011E012AA5
:1003B0001200F86AD09EB886080EAF6E020EB06EBC
:1003C000A60EAC6E900EAB6E046A0B6A0C6A0D6AD8
:1003D0000E6A176AC150C00B0F09C16E070EB46ECA
:1003E0000F68106811681268136814681568166839
:1003F000B6D618D7206A216A39DFBA0EF66E000E1B
:10040000F76E4CD7400E236EEEDE196A19BE03D08C
:1004100019503F080DE3036A1950F2CF1BF0F29E0A
:100420001ADE1BBEF28E1B6E206E2DDF192AEED750
:100430001C6A020E1D6E1E6A68DF1A6A1ABE03D09D
:100440001A50630822E31AC01CF00A0E1D6E8DDFDD
:1004500001C01CF00A0E1D6E88DF00C01BF000C03A
:100460001CF0020E1D6E1E6A50DF1AC01CF00A0E30
:100470001D6E7BDF00C01BF000C01CF0020E1D6E65
:0E048000030E1E6E42DF1A2AD9D7D7D703000B
:020000040030CA
:0E00000027CC3E1E0087A1000FC00FE00F406E
:00000001FF
;PIC18F4550
;CRC=6F02  CREATED="06-Thg4-23 07:58"
