:100000006AEF02F0636C6F636B3A00002A6A2A5051
:1000100007080EE329BE02D08D9401D08D849694FA
:1000200096908D9096908D80D89029362A2AEFD779
:10003000120024C025F023C026F025C029F0E6DFF9
:1000400026C029F0E3DF1200246A236AF2DF246A63
:10005000236AEFDF246A236AECDF246A236AE9DF7C
:1000600095968C8695968C9695988C8895988C9874
:10007000959A8C8A959A8C9A959E8C8E959E8C9E3C
:1000800095948C8495948C9424682368D2DF24689A
:100090002368CFDF959C8C8C959C8C9C5CEF00F04A
:1000A000FF0E926E3C0E936EF10E946E000E966EE5
:1000B000956E956A8C6AC8D7F19E066A056AC0502B
:1000C000C00B0209C06EC08EC280C150C00B0C09AB
:1000D000C16E95908C908AEF02F00EC029F096DFE9
:1000E0000DC029F093DF0CC029F090DF0BC029F080
:1000F0008DDF95948C8495948C9486EF00F0275036
:100100000C6E0C1E28C00BF00B1EE7D712001880D7
:1001100018C027F026C028F0F2DF189018C027F08A
:1001200026C028F0ECDF1200189423C026F0EFDF81
:10013000200E006E002EFED700D000001200EA6AEA
:10014000240EE96EEF500DE0060E016E006A002EDF
:10015000FED7012EFBD77B0E006E002EFED7EF2EB2
:10016000F3D712001890189218841896380E236E40
:10017000DBDF420E006E002EFED700000C0E236E59
:10018000D3DF420E006E002EFED70000010E236E5C
:10019000CBDF020E246ED3DF060E236EC5DF420EC8
:1001A000006E002EFED700008BEF02F0188425C0F1
:1001B00026F0ADDF200E006E002EFED700D000002E
:1001C00012000900F5520CE0F6CF23F0F7CF24F02F
:1001D000F5CF25F0EBDF23C0F6FF24C0F7FFF1D702
:1001E00093EF02F0080E016E00008A9293920000D5
:1001F00023368A90D8B09380D8A09390938281A21E
:10020000FED7012EF1D700008A92939200009380CE
:1002100000000000938281A2FED7016A000081B035
:1002200001808A9293928A9093901200080E246E15
:1002300000C025F093800000938281A2FED781B098
:10024000D88081A0D8900136000093928A92242E03
:10025000F1D7938000008A902550D8A49390000095
:10026000938281A2FED700008A92939200008A9026
:10027000939012009380050E006E002EFED793829D
:10028000060E006E002EFED78A909390050E006E2B
:10029000002EFED78A929392D00E236EA3DF236A9C
:1002A000A1DF9380050E006E002EFED79382060E0E
:1002B000006E002EFED781A2FED78A909390050E85
:1002C000006E002EFED78A929392D10E236E8ADFA3
:1002D000010E006EABDF01C01FF0010E006EA6DF45
:1002E00001C01EF0010E006EA1DF01C01DF0010E65
:1002F000006E9CDF01C01CF0010E006E97DF01C094
:100300001BF0010E006E92DF01C01AF0010E006EAC
:100310008DDF01C019F0010E006E88DF01C021F0F1
:10032000006A84DF01C020F093900000938281A2D4
:10033000FED7050E006E002EFED700D00000938081
:10034000050E006E002EFED71200550E1F6E330EE6
:100350001E6E080E1D6E1C6E160E1B6E060E1A6E9D
:10036000130E196E900E216E980E206E98EF02F00B
:100370009380050E006E002EFED79382060E006E4F
:10038000002EFED78A909390050E006E002EFED7A9
:100390008A929392D00E236E25DF236A23DF1FC03B
:1003A00023F020DF1EC023F01DDF1DC023F01ADF65
:1003B0001CC023F017DF1BC023F014DF1AC023F08A
:1003C00011DF19C023F00EDF21C023F00BDF20C0A6
:1003D00023F008DF93900000938281A2FED7050EE0
:1003E000006E002EFED700D000009380050E006E38
:1003F000002EFED799EF02F08C0E236E95DE1D388D
:10040000006E0F0E00160050300F236E256ECEDEEC
:100410001D500F0B300F236E256EC8DE200E256E8B
:10042000C5DE1E38006E0F0E00160050300F236E12
:10043000256EBCDE1E500F0B300F236E256EB6DE10
:10044000200E256EB3DE1F38006E0F0E0016005012
:10045000300F236E256EAADE1F500F0B300F236E58
:10046000256EA4DECC0E236E5FDE1B38006E0F0EF1
:1004700000160050300F236E256E98DE1B500F0BB8
:10048000300F236E256E92DE200E256E8FDE1A3819
:10049000006E0F0E00160050300F236E256E86DEA4
:1004A0001A500F0B300F236E256E80DE200E256E46
:1004B0007DDE1938006E0F0E00160050300F236ECF
:1004C000256E74DE19500F0B300F236E256E6EDE15
:1004D000A3EF02F0F86AD09EB886080EAF6E020E47
:1004E000B06EA60EAC6E900EAB6E046A0B6A0C6A10
:1004F0000D6A0E6A176AC150C00B0F09C16E070E54
:10050000B46E0F6810681168126813681468156873
:100510001668C6D527D6800E236E06DE040EF66E4C
:10052000000EF76E4ED6A6DE2050980802E00DD7DA
:100530001FD7A0DE1FC022F09DDE1F50225C03E00B
:100540001FC022F059D7020E236EFA0E246EF7DD7B
:08055000232EFBD7F1D70300B5
:020000040030CA
:0E00000027CC3E1E0087A1000FC00FE00F406E
:00000001FF
;PIC18F4550
;CRC=D356  CREATED="11-Thg5-23 07:49"
