:0400000079EF01F0A3
:08000800046ED8CF05F0E0CF33
:1000100006F00001E9CF0CF0EACF07F0E1CF08F0DD
:10002000E2CF09F0D9CF0AF0DACF0BF0F3CF12F01C
:10003000F4CF13F0FACF14F000C00EF001C00FF0AF
:1000400002C010F003C011F09DA02AEF00F09EB096
:1000500071EF00F00EC000F00FC001F010C002F010
:1000600011C003F00CC0E9FF07C0EAFF078E08C00B
:10007000E1FF09C0E2FF0AC0D9FF0BC0DAFF12C0DE
:10008000F3FF13C0F4FF14C0FAFF045006C0E0FFF2
:1000900005C0D8FF1000F2CF0DF0F29EF76AB00F46
:1000A000F66E000EF7220900F5500DBEF28E12001A
:1000B000C0F9A4B0999282F880908883C6A1868EF8
:1000C000F2CF0DF0F29EF76ADA0FF66E000EF7220D
:1000D0000900F5500DBEF28E12007FBFDFEFF7FB77
:1000E000FDFE2B2A2C2A0B0ECF6EDC0ECE6E9E90C0
:1000F0002AEF00F0326A325007080EE331BE02D018
:100100008D9401D08D84969496908D9096908D804C
:10011000D8903136322AEFD712002EC02FF02DC0E2
:1001200030F02FC031F0E6DF30C031F0E3DF1200F5
:100130002E6A2D6AF2DF2E6A2D6AEFDF2E6A2D6A93
:10014000ECDF2E6A2D6AE9DF95968C8695968C9663
:1001500095988C8895988C98959A8C8A959A8C9A73
:10016000959E8C8E959E8C9E95948C8495948C9463
:100170002E682D68D2DF2E682D68CFDF959C8C8C81
:10018000959C8C9CD0EF00F0FF0E926E3C0E936E0F
:10019000F10E946E000E966E956E956A8C6AC8D7B5
:1001A000F19E186A176AC050C00B0209C06EC08E5B
:1001B000C280C150C00B0C09C16E95908C909AEF13
:1001C00001F0036A2E50F2CF30F0F29E79DF30BE9C
:1001D000F28E016E306E301E30C031F08BDF2FC0DA
:1001E00030F0301E30C031F085DF959A8C8A959AB8
:1001F0008C9A2EEF01F02D502F6E2F1E2FC031F054
:1002000079DF2EC02FF02F1E2FC031F073DF959AAB
:100210008C8A959A8C9A10EF01F02D682E68EBD796
:1002200034EF01F0296A2950070820E3036A2950B6
:10023000210FE96E000E0320EA6EEF3C01D014D0CE
:10024000036A2950210FE96E000E0320EA6EEFCFFA
:100250002DF029C02EF02DC02FF0B3D7A60E006EC2
:10026000002EFED70000D9D7292ADDD7B7EF01F03D
:100270002D502E18800B306E2DAE02D02D1E2D2A43
:100280002EAE02D02E1E2E2A2E50016A2D5C03E2C5
:100290002DC000F00CD0006A080E2F6E2D360036EF
:1002A0002E50005CD8B0006E01362F2EF7D730AE3E
:1002B00002D0011E012A12002AC02DF00A0E2E6E55
:1002C000D7DF036A0050F2CF2DF0F29EE4DE2DBEA0
:1002D000F28E246E2AC02DF00A0E2E6EC9DF036A3C
:1002E0000150F2CF2DF0F29ED6DE2DBEF28E256E9D
:1002F0001200F86AD09E078EB886080EAF6E020E06
:10030000B06EA60EAC6E900EAB6E166A1D6A1E6ABB
:100310001F6A206A296AC150C00B0F09C16E070EFF
:10032000B46E2168226823682468256826682768D7
:1003300028682AD7B50ECD6E0B0ECF6EDC0ECE6EB2
:10034000C00EF2129D80050E2A6E2C6A2CC02BF076
:100350002BBE03D02B50090802E364D708D00A0E45
:100360002B5E2A2A2A50150802E1050E2A6E2CBEA1
:1003700005D02C50180802E2190E2C5E2ABE0DD0B2
:100380002A500A080AE22CBE03D02C50090803E3C5
:100390002568246801D090DF01D08EDFD9D7030013
:020000040030CA
:0E00000027CC3E1E0087A1000FC00FE00F406E
:00000001FF
;PIC18F4550
;CRC=278F  CREATED="06-Thg4-23 08:44"
