:040000001BEF02F000
:08000800046ED8CF05F0E0CF33
:1000100006F00001E9CF0CF0EACF07F0E1CF08F0DD
:10002000E2CF09F0D9CF0AF0DACF0BF0F3CF12F01C
:10003000F4CF13F0FACF14F000C00EF001C00FF0AF
:1000400002C010F003C011F09DA02AEF00F09EB096
:1000500071EF00F00EC000F00FC001F010C002F010
:1000600011C003F00CC0E9FF07C0EAFF078E08C00B
:10007000E1FF09C0E2FF0AC0D9FF0BC0DAFF12C0DE
:10008000F3FF13C0F4FF14C0FAFF045006C0E0FFF2
:1000900005C0D8FF1000F2CF0DF0F29EF76AB00F46
:1000A000F66E000EF7220900F5500DBEF28E12001A
:1000B000C0F9A4B0999282F880908883C6A1868EF8
:1000C000F2CF0DF0F29EF76ADA0FF66E000EF7220D
:1000D0000900F5500DBEF28E12007FBFDFEFF7FB77
:1000E000FDFE2F2A0B0ECF6EDC0ECE6E9E902AEFF9
:1000F00000F0000E956E966E956A8C68166817680B
:1001000095928C9295908C901A6A196A33EF02F04E
:1001100032503318800B356E32AE02D0321E322A86
:1001200033AE02D0331E332A3350016A325C03E20D
:1001300032C000F00CD0006A080E346E3236003641
:100140003350005CD8B0006E0136342EF7D735AE90
:1001500002D0011E012A12002EC032F00A0E336EA8
:10016000D7DF036A0050F2CF32F0F29E94DF32BE46
:10017000F28E236E2EC032F00A0E336EC9DF036A90
:100180000150F2CF32F0F29E86DF32BEF28E246E44
:100190002DC032F00A0E336EBBDF036A0050F2CF7F
:1001A00032F0F29E78DF32BEF28E266E2DC032F033
:1001B0000A0E336EADDF036A0150F2CF32F0F29EC9
:1001C0006ADF32BEF28E276E2CC032F00A0E336E1A
:1001D0009FDF036A0050F2CF32F0F29E5CDF32BE46
:1001E000F28E296E2CC032F00A0E336E91DF036A54
:1001F0000150F2CF32F0F29E4EDF32BEF28E2A6E06
:10020000302C02D0299E09D03050020802E1269EEF
:1002100004D03050030801E1239E120036C038F0AC
:10022000376A375007080EE338BE02D08D9401D0EC
:100230008D84969496908D9096908D80D890383637
:10024000372AEFD71200956A8C6A17BC02D08C9CB3
:1002500001D08C8C959C17B802D08C9801D08C88DA
:10026000959817B402D08C9401D08C849594959075
:100270008C801200036A3350F2CF35F0F29E20DFFB
:1002800035BEF28E016E356E351E35C036F0C6DFD6
:1002900034C035F0351E35C036F0C0DF1798D3DFD7
:1002A000959A8C8A959A8C9A95908C90A3EF01F0F0
:1002B000EA6A320EE96EEF500DE0060E016E006A3A
:1002C000002EFED7012EFBD77B0E006E002EFED730
:1002D000EF2EF3D7A6EF01F03250346E341E34C047
:1002E00036F09CDF33C034F0341E34C036F096DF75
:1002F0001798A9DF959A8C8A959A8C9A95908C90EC
:1003000085EF01F032683368E7D7A7EF01F02B6A79
:100310002B5007081EE3036A2B50230FE96E000ED3
:100320000320EA6EEF3C01D012D0036A2B50230F5A
:10033000E96E000E0320EA6EEFCF32F02BC033F0EF
:1003400032C034F097D7140E326EB2D7DBD72B2AD7
:10035000DFD71200316A3150630803E3D8DF312A56
:10036000FAD71200938481B40ED0F4DF938481B461
:100370000AD0302A3050030801E2306AEDDEC7DFD0
:10038000938481A4FCD748EF02F0938A81BA26D0E7
:10039000E1DF938A81BA22D03050010A05E0030AD6
:1003A0000AE0010A0FE015D02C50170802E12C6A70
:1003B00001D02C2A0ED02D503B0802E12D6A01D02D
:1003C0002D2A07D02E503B0802E12E6A01D02E2A9A
:1003D00000D0C2DE9CDF938A81AAFCD749EF02F0ED
:1003E000938881B826D0B6DF938881B822D0305068
:1003F000010A05E0030A0AE0010A0FE015D02C52B9
:1004000003E1170E2C6E01D02C060ED02D5203E105
:100410003B0E2D6E01D02D0607D02E5203E13B0E70
:100420002E6E01D02E0600D097DE71DF938881A852
:10043000FCD74AEF02F0F86AD09E078E186A1F6A4E
:10044000206A216A226A2B6AC150C00B0F09C16E53
:10045000070EB46E23682468256826682768286814
:1004600029682A6846D6B50ECD6E0B0ECF6EDC0E0F
:10047000CE6EC00EF2129D802E6A2D6A2C6A306AF2
:100480006BDE2FBE03D02F50090805E340DF6AD78B
:100490007CD7A6D711D00A0E2F5E2E2A2E503C08EC
:1004A0000BE12E6A2D2A2D503C0806E12D6A2C2ADC
:0C04B0002C50180801E12C6AE3D703006F
:020000040030CA
:0E00000027CC3E1E0087A1000FC00FE00F406E
:00000001FF
;PIC18F4550
;CRC=2BF4  CREATED="12-Thg3-23 15:28"
