:04000000CCEF04F04D
:08000800046ED8CF05F0E0CF33
:1000100006F00001E9CF0CF0EACF07F0E1CF08F0DD
:10002000E2CF09F0D9CF0AF0DACF0BF0F3CF12F01C
:10003000F4CF13F0FACF14F000C00EF001C00FF0AF
:1000400002C010F003C011F09DA02AEF00F09EB096
:1000500080EF00F00EC000F00FC001F010C002F001
:1000600011C003F00CC0E9FF07C0EAFF078E08C00B
:10007000E1FF09C0E2FF0AC0D9FF0BC0DAFF12C0DE
:10008000F3FF13C0F4FF14C0FAFF045006C0E0FFF2
:1000900005C0D8FF1000F2CF0DF0F29EF76AB00F46
:1000A000F66E000EF7220900F5500DBEF28E12001A
:1000B000C0F9A4B0999282F880908883C6A1868EF8
:1000C000F2CF0DF0F29EF76ADA0FF66E000EF7220D
:1000D0000900F5500DBEF28E12007FBFDFEFF7FB77
:1000E000FDFEF2CF0DF0F29EF76AFC0FF66E000EE9
:1000F000F7220900F5500DBEF28E120080C094D494
:100100002F2A0B0ECF6EDC0ECE6E9E902AEF00F0E3
:100110004C4D3335413A000043004C4D3335423AA3
:1001200000004300000E956E966E956A8C68166806
:10013000176895928C9295908C901A6A196AE7EFDD
:1001400004F044C046F0456A455007080EE346BE39
:1001500002D08D9401D08D84969496908D90969037
:100160008D80D8904636452AEFD71200956A8C6A62
:1001700016B802D08C9801D08C88959816BC02D005
:100180008C9C01D08C8C959C16B402D08C9401D0A0
:100190008C84959495928C82120022C044F0D1DF19
:1001A00021C044F0CEDF20C044F0CBDF1FC044F0BC
:1001B000C8DF1694DBDF95968C8695968C96959283
:1001C0008C92EAEF00F04250206E201E43C01FF0D8
:1001D0001F1EE3D712002C802CC042F041C043F018
:1001E000F2DF2C902CC042F041C043F0ECDF120053
:1001F0002C9440C041F0EFDF200E006E002EFED7A1
:1002000000D000001200EA6A3D0EE96EEF500DE0EA
:10021000060E016E006A002EFED7012EFBD77B0E64
:10022000006E002EFED7EF2EF3D712002C902C92EA
:100230002C842C96380E406EDBDF420E006E002EB2
:10024000FED700000C0E406ED3DF420E006E002E73
:10025000FED70000010E406ECBDF020E3D6ED3DFF5
:10026000060E406EC5DF420E006E002EFED7000067
:10027000F2EF04F08E0E006E3EC001F03DC002F0C1
:10028000036A015209E102C001F0026A080E005E31
:10029000015202E1006A08D0D89001BE04D00236B3
:1002A00001360006F9D7019E12003D50D8B4A5D002
:1002B000496E4150D8B4A1D0495E05E37F0E49266E
:1002C000D8B09BD006D0810E495ED8A096D0D8B4C5
:1002D00094D049C000F0016A026A036A486A3EC0CD
:1002E00047F0478E3FC046F040C045F0190E496EBA
:1002F0004450455E0DE2010E465E0AE2475E08E2AA
:10030000485E06E2482A472A462A4450452628D015
:100310004350465E12E2010E475E0FE2485E0DE278
:10032000482A472A435046264450452619E3462A80
:1003300017E1472A15E1482A13D042508009475E49
:100340000EE2010E485E0BE2482A42508009472621
:1003500043504626E9E3472AE7E1482AE5D70380E8
:10036000492E01D00BD0D890453646364736483610
:10037000D8900336023601364A36BAD74AA006D09C
:10038000D8900132023203324A3202D0000635E000
:100390004ABE1ED0D8904536463647364836445079
:1003A000455E07E2010E465E04E2475E02E2485EF9
:1003B0001AE34350465E05E2010E475E02E2485EE4
:1003C00012E342508009475E03E2010E485E0BE3F0
:1003D000032A09E1022A07E1012A05E1002A0DE0CA
:1003E0000132023203323EC049F04250491A49AE4E
:1003F00002D0018E06D0019E04D0006A016A026A12
:10040000036A12008E0E006E3D50005E3EC002F088
:100410003FC001F0028E005209E0D890025202E182
:10042000015204E002320132002EF7D73EAE05D071
:10043000011E021E012AD8B4022A1200016A026AB1
:10044000006A036A405002E13F5018E0100E416E0E
:10045000D8903D363E36003603364050035C02E10C
:100460003F50005C07E33F50005ED8A003064050B9
:10047000035ED88001360236412EEAD71200000E04
:10048000016EC250C30B0110C26E316A306A2D6A10
:100490002E502D5C0EE2C282C2B2FED7C35030266F
:1004A000C4503122A60E006E002EFED700002D2A69
:1004B000EFD731C03EF030C03DF0DCDE03C040F08D
:1004C00002C03FF001C03EF000C03DF0AA0E446EF5
:1004D000F10E436E020E426E800E416EE6DE03C0E8
:1004E00040F002C03FF001C03EF000C03DF08ADFA6
:1004F00002C031F001C030F031C03EF030C03DF0FC
:10050000406A2EC03FF09ADF02C031F001C030F0E7
:10051000F3EF04F0040E016EC250C30B0110C26E63
:10052000336A326A2D6A2E502D5C0EE2C282C2B24C
:10053000FED7C3503226C4503322A60E006E002EC2
:10054000FED700002D2AEFD733C03EF032C03DF079
:1005500091DE03C040F002C03FF001C03EF000C099
:100560003DF0AA0E446EF10E436E020E426E800EF6
:10057000416E9BDE03C040F002C03FF001C03EF080
:1005800000C03DF03FDF02C033F001C032F033C0A5
:100590003EF032C03DF0406A2EC03FF04FDF02C057
:1005A00033F001C032F0F4EF04F031C03EF030C05F
:1005B0003DF0406A0A0E3F6E41DF02C03EF001C0CE
:1005C0003DF002C003F00150F2CF3FF0F29E63DD38
:1005D0003FBEF28E036A346E03C035F031C03EF088
:1005E00030C03DF0406A0A0E3F6E28DF00C03DF08B
:1005F00003C03EF003C003F00050F2CF3FF0F29E84
:100600004ADD3FBEF28E036A366E03C037F03450C7
:10061000C00804E1355202E1356A346833C03EF067
:1006200032C03DF0406A0A0E3F6E08DF02C03EF065
:1006300001C03DF002C003F00150F2CF3FF0F29E46
:100640002ADD3FBEF28E036A386E03C039F033C034
:100650003EF032C03DF0406A0A0E3F6EEFDE00C051
:100660003DF003C03EF003C003F00050F2CF3FF076
:10067000F29E11DD3FBEF28E036A3A6E03C03BF07C
:100680003850C00804E1395202E1396A3868F5EFA0
:1006900004F042C044F055DD41C044F052DD40C09A
:1006A00044F04FDD3FC044F04CDD169C5FDD959E6D
:1006B0008C9E959E8C8E95928C92120031C03EF04D
:1006C00030C03DF0406A0A0E3F6EB8DE00C03DF01B
:1006D00003C03EF003C003F00050F2CF3FF0F29EA3
:1006E000DADC3FBEF28E296E31C03EF030C03DF004
:1006F000406A0A0E3F6EA2DE02C03EF001C03DF02D
:1007000002C003F00150F2CF3FF0F29EC4DC3FBEC6
:10071000F28E2A6E33C03EF032C03DF0406A0A0EBF
:100720003F6E8CDE00C03DF003C03EF003C003F01E
:100730000050F2CF3FF0F29EAEDC3FBEF28E236E51
:1007400033C03EF032C03DF0406A0A0E3F6E76DEA6
:1007500002C03EF001C03DF002C003F00150F2CFF4
:100760003FF0F29E98DC3FBEF28E246E02EF05F061
:10077000956A8C6A17BC02D08C9C01D08C8C959C9D
:1007800017B802D08C9801D08C88959817B402D0F5
:100790008C9401D08C84959495908C801200036A7F
:1007A0003E50F2CF40F0F29E8BDC40BEF28E016EE6
:1007B000406E401E40C044F0C4DC3FC040F0401ECC
:1007C00040C044F0BEDC1798D3DF959A8C8A959A86
:1007D0008C9A95908C9024EF04F03D503F6E3F1E14
:1007E0003FC044F0AEDC3EC03FF03F1E3FC044F08F
:1007F000A8DC1798BDDF959A8C8A959A8C9A95906B
:100800008C9006EF04F03D683E68E7D728EF04F0CF
:100810002B6A2B5007081EE3036A2B50230FE96E47
:10082000000E0320EA6EEF3C01D012D0036A2B5079
:10083000230FE96E000E0320EA6EEFCF3DF02BC0D0
:100840003EF03DC03FF0ABD7140E3D6EDCDCDBD795
:100850002B2ADFD703EF05F0036A3D50F2CF3FF0BC
:10086000F29E3FDC3FBEF28E3E243F6E406EC0DC07
:1008700012002C843FC041F0AEDC200E006E002E32
:10088000FED700D0000012000900F5520CE0F6CFB0
:100890003DF0F7CF3EF0F5CF3FF0EBDF3DC0F6FF88
:1008A0003EC0F7FFF1D712003D6A3E6AD5DF100E59
:1008B000F66E010EF76EE8DF3D6A060E3E6ECCDF87
:1008C00031C03EF030C03DF0406A0A0E3F6EB6DDEA
:1008D00002C03EF001C03DF0300E3D26000E3E222B
:1008E0003DC03FF0C6DF31C03EF030C03DF0406A51
:1008F0000A0E3F6EA3DD00C03DF003C03EF0300E97
:100900003D26000E3E223DC03FF0B3DFDF0E3F6EBE
:10091000B0DF180EF66E010EF76EB6DF010E3D6EFB
:100920003E6A9ADF1A0EF66E010EF76EADDF010E0B
:100930003D6E060E3E6E90DF33C03EF032C03DF09D
:10094000406A0A0E3F6E7ADD02C03EF001C03DF003
:10095000300E3D26000E3E223DC03FF08ADF33C000
:100960003EF032C03DF0406A0A0E3F6E67DD00C0C7
:100970003DF003C03EF0300E3D26000E3E223DC04D
:100980003FF077DFDF0E3F6E74DF220EF66E010E52
:10099000F76E7ADF04EF05F0F86AD09E078E186ACA
:1009A0001F6A206A216A226A2B6A640E2E6EC15069
:1009B000C00B0F09C16E070EB46E2368246825684A
:1009C00026682768286829682A6892EF00F0C050D6
:1009D000C00B0209C06EC08EC280C150C00B0D0991
:1009E000C16E24D44CD596D5E0D536507F0B3D6EE4
:1009F0003E6A34C03FF0406E38C041F03AC042F029
:100A000048DE5CD605D750D7315208E130501E0879
:100A100005E3335203E132501E0802E23C8001D06C
:100A20003C903CA087D02F5004081BE33F684068EF
:100A3000416842682EDE3D6A060E3E6E0DDF200ED6
:100A40003F6E17DF200E3F6E14DF010E3D6E060E67
:100A50003E6E02DF200E3F6E0CDF200E3F6E09DF80
:100A600064D02F50090861E336507F0B3D6E3E6A1B
:100A700034C03FF0406E38C041F03AC042F009DE69
:100A80003D6A060E3E6EE8DE31C03EF030C03DF0FD
:100A9000406A0A0E3F6ED2DC02C03EF001C03DF05B
:100AA000300E3D26000E3E223DC03FF0E2DE31C05A
:100AB0003EF030C03DF0406A0A0E3F6EBFDC00C021
:100AC0003DF003C03EF0300E3D26000E3E223DC0FC
:100AD0003FF0CFDE010E3D6E060E3E6EBDDE33C032
:100AE0003EF032C03DF0406A0A0E3F6EA7DC02C005
:100AF0003EF001C03DF0300E3D26000E3E223DC0CE
:100B00003FF0B7DE33C03EF032C03DF0406A0A0E1F
:100B10003F6E94DC00C03DF003C03EF0300E3D2639
:100B2000000E3E223DC03FF0A4DE2F500A0801E235
:100B30002F6A0CD036507F0B3D6E3E6A34C03FF0BA
:100B4000406E38C041F03AC042F0A3DD4BD70300FD
:020000040030CA
:0E00000027CC3E1E0087A1000FC00FE00F406E
:00000001FF
;PIC18F4550
;CRC=786C  CREATED="26-Thg4-23 23:25"
