:1000000075EF02F0F76A140FF66E000EF722090082
:10001000F5501200C0F9A4B0999282F880908883BC
:10002000C6A1868E000E956E966E956A8C680468E1
:10003000056895928C9295908C90086A076A8EEF6D
:1000400002F08E0E006E29C001F028C002F0036A93
:10005000015209E102C001F0026A080E005E01527D
:1000600002E1006A08D0D89001BE04D00236013601
:100070000006F9D7019E12002850D8B4A5D0346EDE
:100080002C50D8B4A1D0345E05E37F0E3426D8B00E
:100090009BD006D0810E345ED8A096D0D8B494D030
:1000A00034C000F0016A026A036A336A29C032F080
:1000B000328E2AC031F02BC030F0190E346E2F5022
:1000C000305E0DE2010E315E0AE2325E08E2335E1E
:1000D00006E2332A322A312A2F50302628D02E50D9
:1000E000315E12E2010E325E0FE2335E0DE2332A20
:1000F000322A2E5031262F50302619E3312A17E1AB
:10010000322A15E1332A13D02D508009325E0EE2D7
:10011000010E335E0BE2332A2D50800932262E5019
:100120003126E9E3322AE7E1332AE5D70380342E8A
:1001300001D00BD0D8903036313632363336D890A5
:100140000336023601363536BAD735A006D0D890F8
:10015000013202320332353202D0000635E035BEBC
:100160001ED0D89030363136323633362F50305E8E
:1001700007E2010E315E04E2325E02E2335E1AE310
:100180002E50315E05E2010E325E02E2335E12E372
:100190002D508009325E03E2010E335E0BE3032A29
:1001A00009E1022A07E1012A05E1002A0DE00132F6
:1001B0000232033229C034F02D50341A34AE02D04A
:1001C000018E06D0019E04D0006A016A026A036AA9
:1001D00012008E0E006E2850005E29C002F02AC068
:1001E00001F0028E005209E0D890025202E1015261
:1001F00004E002320132002EF7D729AE05D0011EED
:10020000021E012AD8B4022A1200016A026A006A98
:10021000036A2B5002E12A5018E0100E2C6ED89081
:1002200028362936003603362B50035C02E12A506B
:10023000005C07E32A50005ED8A003062B50035E43
:10024000D880013602362C2EEAD71200000E016E3D
:10025000C250C30B0110C26E1D6A1C6A1A6A1B5081
:100260001A5C0EE2C282C2B2FED7C3501C26C45032
:100270001D22A60E006E002EFED700001A2AEFD710
:100280001DC029F01CC028F0DCDE03C02BF002C02A
:100290002AF001C029F000C028F0AA0E2F6EF10E3E
:1002A0002E6E020E2D6E800E2C6EE6DE03C02BF03D
:1002B00002C02AF001C029F000C028F08ADF02C085
:1002C0001DF001C01CF01DC029F01CC028F02B6AD5
:1002D0001BC02AF09ADF02C01DF001C01CF01CC038
:1002E00001F099EF02F0040E016EC250C30B011031
:1002F000C26E1F6A1E6A1A6A1B501A5C0EE2C28224
:10030000C2B2FED7C3501E26C4501F22A60E006ED6
:10031000002EFED700001A2AEFD71FC029F01EC0FA
:1003200028F08FDE03C02BF002C02AF001C029F0B4
:1003300000C028F0AA0E2F6EF10E2E6E020E2D6E4A
:10034000800E2C6E99DE03C02BF002C02AF001C093
:1003500029F000C028F03DDF02C01FF001C01EF0F0
:100360001FC029F01EC028F02B6A1BC02AF04DDFE9
:1003700002C01FF001C01EF09AEF02F01DC029F06C
:100380001CC028F02B6A0A0E2A6E3FDF02C029F03B
:1003900001C028F002C003F00150F2CF2AF0F29E13
:1003A00031DE2ABEF28E036A206E03C021F01DC02A
:1003B00029F01CC028F02B6A0A0E2A6E26DF00C026
:1003C00028F003C029F003C003F00050F2CF2AF058
:1003D000F29E18DE2ABEF28E036A226E03C023F05C
:1003E0002050C00804E1215202E1216A20681FC0A8
:1003F00029F01EC028F02B6A0A0E2A6E06DF02C002
:1004000029F001C028F002C003F00150F2CF2AF019
:10041000F29EF8DD2ABEF28E036A246E03C025F038
:100420001FC029F01EC028F02B6A0A0E2A6EEDDECE
:1004300000C028F003C029F003C003F00050F2CF41
:100440002AF0F29EDFDD2ABEF28E036A266E03C01A
:1004500027F02450C00804E1255202E1256A2468EF
:100460009BEF02F02EC030F02F6A2F5007080EE3EA
:1004700030BE02D08D9401D08D84969496908D904C
:1004800096908D80D89030362F2AEFD71200956A3B
:100490008C6A04B802D08C9801D08C88959804BCE2
:1004A00002D08C9C01D08C8C959C04B402D08C948E
:1004B00001D08C84959495928C826DEF02F02DC0C2
:1004C0002EF0D0DF2CC02EF0CDDF2BC02EF0CADFF7
:1004D0002AC02EF0C7DF049CDAD7959E8C9E959E8D
:1004E0008C8E95928C92A7EF02F0F86AD09E066AE5
:1004F0000D6A0E6A0F6A106A196A640E1B6EC1508B
:10050000C00B0F09C16E070EB46E11681268136834
:100510001468156816681768186884D5C050C00B31
:100520000209C06EC08EC280C150C00B0D09C16EE1
:100530008DD6D9D623D722507F0B286E296A20C0AA
:100540002AF02B6E24C02CF026C02DF0B8D7F0D79F
:020550000300A6
:020000040030CA
:0E00000027CC3E1E0087A1000FC00FE00F406E
:00000001FF
;PIC18F4550
;CRC=5962  CREATED="12-Thg4-23 23:01"
