:1000000094EF01F0F76A140FF66E000EF722090064
:10001000F550120080C094D4F76A280FF66E000ED7
:10002000F7220900F55012003F7FBFFF48415920D9
:100030004E48414E205048494D3A0000000E956E02
:10004000966E956A8C680468056895928C92959076
:100050008C90086A076AADEF01F025C027F0266A88
:10006000265007080EE327BE02D08D9401D08D8460
:10007000969496908D9096908D80D8902736262ACB
:10008000EFD71200956A8C6A04B802D08C9801D020
:100090008C88959804BC02D08C9C01D08C8C959C4B
:1000A00004B402D08C9401D08C84959495928C8267
:1000B00068EF00F010C025F0D0DF0FC025F0CDDFD5
:1000C0000EC025F0CADF0DC025F0C7DF0494DAD7D3
:1000D00095968C8695968C9695928C9277EF00F0FB
:1000E00023500E6E0E1E24C00DF00D1EE3D712001D
:1000F0001A801AC023F022C024F0F2DF1A901AC02E
:1001000023F022C024F0ECDF12001A9421C022F068
:10011000EFDF200E006E002EFED700D00000120090
:10012000EA6A210EE96EEF500DE0060E016E006ADC
:10013000002EFED7012EFBD77B0E006E002EFED7C1
:10014000EF2EF3D712001A901A921A841A96380ECC
:10015000216EDBDF420E006E002EFED700000C0E7B
:10016000216ED3DF420E006E002EFED70000010E7E
:10017000216ECBDF020E216ED3DF060E216EC5DFAE
:10018000420E006E002EFED70000AEEF01F0036AB3
:100190001E50F2CF20F0F29E35DF20BEF28E1F24DB
:1001A000206E216EB2DF12001A8420C022F0A0DF80
:1001B000200E006E002EFED700D0000012000900B5
:1001C000F5520CE0F6CF1EF0F7CF1FF0F5CF20F080
:1001D000EBDF1EC0F6FF1FC0F7FFF1D7B6EF01F04F
:1001E000006A016A2150D89022B000260032013204
:1001F00022B200260032013222B40026003201323F
:1002000022B600260032013222B800260032013226
:1002100022BA00260032013222BC0026003201320E
:1002200022BE00260032013250EF01F01F681FC0CD
:100230001EF0206A20BE03D02050030829E3036A81
:100240002050F2CF21F0F29EE7DE21BEF28E936ABB
:100250008A6E938481B403D01F6A1AD014D0938617
:1002600081B604D0010E1F6E13D00DD0938881B8D3
:1002700004D0020E1F6E0CD006D0938A81BA03D030
:10028000030E1F6E05D01E0E216E4ADF202AD2D724
:100290001F3C01D008D020C021F0040E226EA0D750
:1002A0001F5001241E6E1EC001F01200BFDF01C0EE
:1002B0001BF01B3C01D01BD01C501B5C06E01BC07C
:1002C00001F01AD01BC01CF011D0010E216E28DFE6
:1002D000ADDF01C01BF0AADF01C01CF01B501C5C8D
:1002E000FAE11BC001F008D01BC01CF005D01BC0F8
:1002F00001F002D01BC01CF0B7EF01F01E6A130E14
:100300001F6E45DF1DBE03D01D50090806E3300EE9
:100310001D241E6E206E48DF05D0370E1D241E6E74
:10032000206E42DFBDEF01F0F86AD09E066A0D6ACA
:100330000E6A0F6A106A196A1B6A1C6AC150C00BE8
:100340000F09C16E070EB46E116812681368146845
:10035000156816681768186871D6F5D61E6A1F6A80
:1003600016DF2C0EF66E000EF76E29D79FD701C050
:0E0370001DF01D3C01D001D0C1D7F8D703000D
:020000040030CA
:0E00000027CC3E1E0087A1000FC00FE00F406E
:00000001FF
;PIC18F4550
;CRC=4E94  CREATED="22-Thg3-23 22:36"
