:10000000B3EF00F0F76A140FF66E000EF722090046
:10001000F5501200C0F9A4B0999282F880908883BC
:10002000C6A1868E236A235007080EE322BE02D0A3
:100030008D9401D08D84969496908D9096908D801D
:10004000D8902236232AEFD712001BC01CF01AC00A
:100050001DF01CC022F0E6DF1DC022F0E3DF12001D
:100060001B6A1A6AF2DF1B6A1A6AEFDF1B6A1A6AD6
:10007000ECDF1B6A1A6AE9DF95968C8695968C965A
:1000800095988C8895988C98959A8C8A959A8C9A44
:10009000959E8C8E959E8C9E95948C8495948C9434
:1000A0001B681A68D2DF1B681A68CFDF959C8C8C9E
:1000B000959C8C9C68EF00F0FF0E926E3C0E936E48
:1000C000F10E946E000E966E956E956A8C6AC8D786
:1000D000F19E066A056AC050C00B0209C06EC08E50
:1000E000C280C150C00B0C09C16E95908C90D5EFA9
:1000F00000F01E50016A1D5C03E21DC000F00CD030
:10010000006A080E1F6E1D3600361E50005CD8B007
:10011000006E01361F2EF7D7120021C022F082DFB9
:1001200020C022F07FDF1FC022F07CDF1EC022F043
:1001300079DF959C8C9C959C8C8C15EF01F0EA6A7C
:100140001A0EE96EEF500DE0060E016E006A002EE9
:10015000FED7012EFBD77B0E006E002EFED7EF2EB2
:10016000F3D718EF01F0F86AD09EB886080EAF6E8C
:10017000020EB06EA60EAC6E900EAB6E046A0B6AE9
:100180000C6A0D6A0E6A176AC150C00B0F09C16E66
:10019000070EB46E0F68106811681268136814684F
:1001A00015681668186A196A87D719C01DF00A0EF3
:1001B0001E6E9FDF036A0150F2CF1AF0F29E22DF1B
:1001C0001ABEF28E1A6E19C01DF00A0E1E6E91DF55
:1001D000036A0050F2CF1BF0F29E14DF1BBEF28EBA
:1001E0001B6E18C01DF00A0E1E6E83DF036A0150DD
:1001F000F2CF1CF0F29E06DF1CBEF28E1C6E18C001
:100200001DF00A0E1E6E75DF036A0050F2CF1DF05E
:10021000F29EF8DE1DBEF28E1D6E1AC01EF01BC0CF
:100220001FF01CC020F0216E78D7C80E1A6E87D739
:10023000182A18503C0802E1186A192AB6D7030098
:020000040030CA
:0E00000027CC3E1E0087A1000FC00FE00F406E
:00000001FF
;PIC18F4550
;CRC=FB58  CREATED="02-Thg3-23 09:17"
