:10000000EBEF01F0F76A140FF66E000EF72209000D
:10001000F550120080C094D4F76A280FF66E000ED7
:10002000F7220900F55012003F7FBFFF48415920D9
:100030004E48414E205048494D3A0000396A3950E7
:1000400007080EE338BE02D08D9401D08D849694BB
:1000500096908D9096908D80D8903836392AEFD72B
:10006000120032C033F031C034F033C038F0E6DF74
:1000700034C038F0E3DF1200326A316AF2DF326AEC
:10008000316AEFDF326A316AECDF326A316AE9DF06
:1000900095968C8695968C9695988C8895988C9844
:1000A000959A8C8A959A8C9A959E8C8E959E8C9E0C
:1000B00095948C8495948C9432683168D2DF326840
:1000C0003168CFDF959C8C8C959C8C9C74EF00F0F4
:1000D000FF0E926E3C0E936EF10E946E000E966EB5
:1000E000956E956A8C6AC8D7F19E066A056AC050FB
:1000F000C00B0209C06EC08EC280C150C00B0C097B
:10010000C16E95908C902AEF02F00EC038F096DF09
:100110000DC038F093DF0CC038F090DF0BC038F022
:100120008DDF95948C8495948C949EEF00F03650DE
:100130000C6E0C1E37C00BF00B1EE7D71200188098
:1001400018C036F035C037F0F2DF189018C036F01E
:1001500035C037F0ECDF1200189434C035F0EFDF13
:10016000200E006E002EFED700D000001200EA6ABA
:10017000340EE96EEF500DE0060E016E006A002E9F
:10018000FED7012EFBD77B0E006E002EFED7EF2E82
:10019000F3D712001890189218841896380E346EFF
:1001A000DBDF420E006E002EFED700000C0E346E18
:1001B000D3DF420E006E002EFED70000010E346E1B
:1001C000CBDF020E346ED3DF060E346EC5DF420E77
:1001D000006E002EFED700002BEF02F0036A3150B4
:1001E000F2CF33F0F29E0EDF33BEF28E3224336E46
:1001F000346EB2DF1200188433C035F0A0DF200E59
:10020000006E002EFED700D0000012000900F5524B
:100210000CE0F6CF31F0F7CF32F0F5CF33F0EBDF73
:1002200031C0F6FF32C0F7FFF1D733EF02F0006ABA
:10023000016A3450D89035B000260032013235B210
:1002400000260032013235B400260032013235B6C4
:1002500000260032013235B800260032013235BAAC
:1002600000260032013235BC00260032013235BE94
:1002700000260032013277EF01F0326832C031F0EF
:10028000336A33BE03D03350030829E3036A335083
:10029000F2CF34F0F29EC0DE34BEF28E936A8A6EE4
:1002A000938481B404D0030E326E19D013D0938698
:1002B00081B604D0020E326E12D00CD0938881B871
:1002C00004D0010E326E0BD005D0938A81BA02D0D1
:1002D000326A05D01E0E346E4ADF332AD2D7323C42
:1002E00001D008D033C034F0040E356EA0D73250A0
:1002F0000124316E31C001F01200BFDF01C019F0DE
:10030000193C01D01BD01A50195C06E019C001F04D
:100310001AD019C01AF011D0010E346E28DFADDFEB
:1003200001C019F0AADF01C01AF019501A5CFAE1F5
:1003300019C001F008D019C01AF005D019C001F099
:1003400002D019C01AF034EF02F0130E1C6E1CBE5E
:100350001CD0036A1C501D0F016E000E032201C049
:1003600031F003C032F0010E1C5C036A1D0FE96E10
:10037000000E0320EA6EEFCF33F032C0EAFF01C077
:10038000E9FF33C0EFFF1C06E2D71BBE03D01B50B2
:10039000090804E3300E1B241D6E03D0370E1B2406
:1003A0001D6E3DEF02F0010E316E326A17DF130E43
:1003B0001C6E1CBE0ED0036A1C501D0FE96E000E91
:1003C0000320EA6EEFCF31F031C033F014DF1C06AA
:1003D000F0D73EEF02F0F86AD09EB886080EAF6EF6
:1003E000020EB06EA60EAC6E900EAB6E046A0B6A77
:1003F0000C6A0D6A0E6A176A196A1A6AC150C00B34
:100400000F09C16E070EB46E05D008400FFF1440EF
:100410001DFE0000000EF86E040EF76E0A0EF66E5A
:100420000900F550006E000A13E00900F550016E56
:10043000E8BE05D00F0BEA6E0900F5CFE9FF01BC5D
:10044000090001AC0900F5CFEEFF004EE9D7F9D75E
:10045000F86A3ED69FD6316A326AC0DE2C0EF66E3E
:10046000000EF76ED3D649D701C01BF0640E346E70
:100470007EDE1B3C01D002D068D795D7F4D70300AD
:020000040030CA
:0E00000027CC3E1E0087A1000FC00FE00F406E
:00000001FF
;PIC18F4550
;CRC=E24A  CREATED="23-Thg3-23 08:39"
