:100000009BEF04F0F76A140FF66E000EF72209005A
:10001000F550120080C094D4434E000054320000CA
:1000200054330000543400005435000054360000AE
:1000300054370000636C6F636B3A00002E6A2E50D9
:1000400007080EE32DBE02D08D9401D08D849694C6
:1000500096908D9096908D80D8902D362E2AEFD741
:10006000120027C028F026C029F028C02DF0E6DFB6
:1000700029C02DF0E3DF1200276A266AF2DF276A23
:10008000266AEFDF276A266AECDF276A266AE9DF3D
:1000900095968C8695968C9695988C8895988C9844
:1000A000959A8C8A959A8C9A959E8C8E959E8C9E0C
:1000B00095948C8495948C9427682668D2DF276861
:1000C0002668CFDF959C8C8C959C8C9C74EF00F0FF
:1000D000FF0E926E3C0E936EF10E946E000E966EB5
:1000E000956E956A8C6AC8D7F19E066A056AC050FB
:1000F000C00B0209C06EC08EC280C150C00B0C097B
:10010000C16E95908C90BCEF04F00EC02DF096DF80
:100110000DC02DF093DF0CC02DF090DF0BC02DF043
:100120008DDF95948C8495948C949EEF00F02B50E9
:100130000C6E0C1E2CC00BF00B1EE7D712001880A3
:1001400018C02BF02AC02CF0F2DF189018C02BF04A
:100150002AC02CF0ECDF1200189429C02AF0EFDF3F
:10016000200E006E002EFED700D000001200EA6ABA
:10017000260EE96EEF500DE0060E016E006A002EAD
:10018000FED7012EFBD77B0E006E002EFED7EF2E82
:10019000F3D712001890189218841896380E296E0A
:1001A000DBDF420E006E002EFED700000C0E296E23
:1001B000D3DF420E006E002EFED70000010E296E26
:1001C000CBDF020E266ED3DF060E296EC5DF420E90
:1001D000006E002EFED70000BDEF04F0188428C08A
:1001E0002AF0ADDF200E006E002EFED700D00000FA
:1001F00012000900F5520CE0F6CF26F0F7CF27F0F9
:10020000F5CF28F0EBDF26C0F6FF27C0F7FFF1D7C8
:100210001200080E016E00008A92939200002636AA
:100220008A90D8B09380D8A09390938281A2FED771
:10023000012EF1D700008A92939200009380000073
:100240000000938281A2FED7016A000081B0018084
:100250008A9293928A9093901200080E276E00C0A3
:1002600028F093800000938281A2FED781B0D880CD
:1002700081A0D8900136000093928A92272EF1D760
:10028000938000008A902850D8A493900000938215
:1002900081A2FED700008A92939200008A909390E8
:1002A00012009380050E006E002EFED79382060E7C
:1002B000006E002EFED78A909390050E006E002EE1
:1002C000FED78A929392D00E266EA3DF266AA1DF14
:1002D0009380050E006E002EFED79382060E006EF0
:1002E000002EFED781A2FED78A909390050E006E55
:1002F000002EFED78A929392D10E266E8ADF010ECF
:10030000006EABDF01C01FF0010E006EA6DF01C062
:100310001EF0010E006EA1DF01C01DF0010E006E87
:100320009CDF01C01CF0010E006E97DF01C01BF0C6
:10033000010E006E92DF01C01AF0010E006E8DDF1B
:1003400001C019F0010E006E88DF01C021F0006AC3
:1003500084DF01C020F093900000938281A2FED739
:10036000050E006E002EFED700D000009380050E13
:10037000006E002EFED71200550E1F6E330E1E6E3D
:10038000080E1D6E1C6E160E1B6E060E1A6E130ED8
:10039000196E900E216E980E206ECBEF04F09380B4
:1003A000050E006E002EFED79382060E006E002E04
:1003B000FED78A909390050E006E002EFED78A928B
:1003C0009392D00E266E25DF266A23DF1FC026F00B
:1003D00020DF1EC026F01DDF1DC026F01ADF1CC066
:1003E00026F017DF1BC026F014DF1AC026F011DF3D
:1003F00019C026F00EDF21C026F00BDF20C026F04A
:1004000008DF93900000938281A2FED7050E006E54
:10041000002EFED700D000009380050E006E002E47
:10042000FED712008A0E296E97DE300E2524266E26
:10043000286ED4DE1200036A2650F2CF28F0F29E16
:10044000E1DD28BEF28E2724286E296E85DE9AEF24
:1004500002F08C0E296E80DE1D38006E0F0E001625
:100460000050300F266E286EB9DE1D500F0B300F76
:10047000266E286EB3DE200E286EB0DE1E38006EAB
:100480000F0E00160050300F266E286EA7DE1E508D
:100490000F0B300F266E286EA1DE200E286E9EDE1A
:1004A0001F38006E0F0E00160050300F266E286E9B
:1004B00095DE1F500F0B300F266E286E8FDECC0E90
:1004C000296E4ADE1B38006E0F0E00160050300FEA
:1004D000266E286E83DE1B500F0B300F266E286EA3
:1004E0007DDE200E286E7ADE1A38006E0F0E0016A2
:1004F0000050300F266E286E71DE1A500F0B300F31
:10050000266E286E6BDE200E286E68DE1938006EAF
:100510000F0E00160050300F266E286E5FDE195049
:100520000F0B300F266E286E59DE010E266E080E58
:10053000276E81D7300E1C24266E286E4FDE200ECB
:10054000286E4CDE1C5206E1180EF66E000EF76E99
:1005500050DE34D01C2C06D01C0EF66E000EF76E4A
:1005600048DE2CD01C50020806E1200EF66E000E6C
:10057000F76E3FDE23D01C50030806E1240EF66E12
:10058000000EF76E36DE1AD01C50040806E1280E65
:10059000F66E000EF76E2DDE11D01C50050806E138
:1005A0002C0EF66E000EF76E24DE08D01C500608E6
:1005B00005E1300EF66E000EF76E1BDED9EF04F08B
:1005C000938481B410D0140E266ED1DD938481B44F
:1005D0000AD02550060802E3252A01D0256A22DF29
:1005E000938481A4FDD7E3EF04F026C027F00F0E1B
:1005F000261626500A0802E1060E272627C001F01B
:1006000012008C0E296EA8DD1D38006E0F0E00162C
:100610000050300F266E286EE1DD1D500F0B300F9D
:10062000266E286EDBDD200E286ED8DD1E38006EAB
:100630000F0E00160050300F266E286ECFDD1E50B4
:100640000F0B300F266E286EC9DD200E286EC6DD1A
:100650001F38006E0F0E00160050300F266E286EE9
:10066000BDDD1F500F0B300F266E286EB7DDCC0E90
:10067000296E72DD1B38006E0F0E00160050300F11
:10068000266E286EABDD1B500F0B300F266E286ECA
:10069000A5DD200E286EA2DD1A38006E0F0E0016A2
:1006A0000050300F266E286E99DD1A500F0B300F58
:1006B000266E286E93DD200E286E90DD1938006EB0
:1006C0000F0E00160050300F266E286E87DD195071
:1006D0000F0B300F266E286E81DD71EF03F05FDEA9
:1006E00090D71200938A81BA77D0140E266E3FDD20
:1006F000938A81BA71D02550010A0DE0030A18E0EF
:10070000010A23E0070A2EE0010A3AE0030A46E064
:10071000010A51E05ED01F50590802E11F6A06D05D
:100720001F2A1FC026F061DF01C01EF0D8DF51D0A4
:100730001E50590802E11E6A06D01E2A1EC026F06D
:1007400054DF01C01EF0CBDF44D01D50230802E16E
:100750001D6A06D01D2A1DC026F047DF01C01DF00E
:10076000BEDF37D01B50310803E1010E1B6E06D0EF
:100770001B2A1BC026F039DF01C01BF0B0DF29D0D7
:100780001A50120803E1010E1A6E06D01A2A1AC076
:1007900026F02BDF01C01AF0A2DF1BD019509908F8
:1007A00002E1196A06D0192A19C026F01EDF01C01D
:1007B00019F095DF0ED01C50070803E1010E1C6EE6
:1007C00006D01C2A1CC026F010DF01C01CF087DFF9
:1007D00000D0938A81AAFDD7E4EF04F026C027F069
:1007E0000F0E261626500F0802E1060E275E27C0C0
:1007F00001F01200938881B874D0140E266EB7DC15
:10080000938881B86ED02550010A0DE0030A18E0E4
:10081000010A23E0070A2EE0010A39E0030A44E056
:10082000010A4FE05BD01F5203E1590E1F6E06D044
:100830001F061FC026F0D2DF01C01EF050DF4ED0D1
:100840001E5203E1590E1E6E06D01E061EC026F073
:10085000C5DF01C01EF043DF41D01D5203E1230E6E
:100860001D6E06D01D061DC026F0B8DF01C01DF0AC
:1008700036DF34D01B5203E1310E1B6E06D01B064F
:100880001BC026F0ABDF01C01BF029DF27D01A2CDC
:1008900003D0120E1A6E06D01A061AC026F09EDF7A
:1008A00001C01AF01CDF1AD0195203E1990E196E1B
:1008B00006D0190619C026F091DF01C019F00FDF2C
:1008C0000DD01C2C03D0070E1C6E06D01C061CC0BD
:1008D00026F08BDE01C01CF002DF00D0938881A8D7
:1008E000FDD7E5EF04F02550010A0BE0030A0DE007
:1008F000010A0FE0070A11E0010A13E0030A15E0FC
:1009000018D0D30E296E28DC14D0D00E296E24DC2A
:1009100010D0CD0E296E20DC0CD08D0E296E1CDC83
:1009200008D0900E296E18DC04D0930E296E14DCCA
:1009300000D0ECEF04F0F86AD09EB886080EAF6ED7
:10094000020EB06EA60EAC6E900EAB6E046A0B6A11
:100950000C6A0D6A0E6A176AC150C00B0F09C16E8E
:10096000070EB46E0F681068116812681368146877
:100970001568166868EF00F00DD4800E296EACEC97
:1009800000F0340EF66E000EF76E33DC8ADC205079
:10099000980802E0F1D403DD256A44DD82DC1FC043
:1009A00022F07FDC1F50225C04E01FC022F03ADD01
:1009B00050D5246A236A245027080BE303E123500F
:1009C0000F0807E3FDD58ED615D7232AD8B4242ADD
:0C09D000F2D72552D8A487D7E4D7030043
:020000040030CA
:0E00000027CC3E1E0087A1000FC00FE00F406E
:00000001FF
;PIC18F4550
;CRC=24F4  CREATED="07-Thg5-23 14:08"
