:0400000051EF04F0C8
:08000800046ED8CF05F0E0CF33
:1000100006F00001E9CF0CF0EACF07F0E1CF08F0DD
:10002000E2CF09F0D9CF0AF0DACF0BF0F3CF12F01C
:10003000F4CF13F0FACF14F000C00EF001C00FF0AF
:1000400002C010F003C011F09DA02AEF00F09EB096
:100050004BEF00F00EC000F00FC001F010C002F036
:1000600011C003F00CC0E9FF07C0EAFF078E08C00B
:10007000E1FF09C0E2FF0AC0D9FF0BC0DAFF12C0DE
:10008000F3FF13C0F4FF14C0FAFF045006C0E0FFF2
:1000900005C0D8FF1000372AD8B4382A0B0ECF6E0F
:1000A000DC0ECE6E9E902AEF00F0636C6F636B3AAD
:1000B0000000416A415007080EE340BE02D08D9413
:1000C00001D08D84969496908D9096908D80D89046
:1000D0004036412AEFD712003BC03CF03AC03DF019
:1000E0003CC040F0E6DF3DC040F0E3DF12003B6A79
:1000F0003A6AF2DF3B6A3A6AEFDF3B6A3A6AECDF60
:100100003B6A3A6AE9DF95968C8695968C96959827
:100110008C8895988C98959A8C8A959A8C9A959EAD
:100120008C8E959E8C9E95948C8495948C943B6833
:100130003A68D2DF3B683A68CFDF959C8C8C959CFF
:100140008C9CAFEF00F0FF0E926E3C0E936EF10EA2
:10015000946E000E966E956E956A8C6AC8D7F19E65
:10016000186A176AC050C00B0209C06EC08EC280E8
:10017000C150C00B0C09C16E95908C9072EF04F0C9
:1001800020C040F096DF1FC040F093DF1EC040F05B
:1001900090DF1DC040F08DDF95948C8495948C94F5
:1001A000D9EF00F03E501E6E1E1E3FC01DF01D1EFA
:1001B000E7D712002A802AC03EF03DC03FF0F2DFB0
:1001C0002A902AC03EF03DC03FF0ECDF12002A9496
:1001D0003AC03DF0EFDF200E006E002EFED700D0BB
:1001E00000001200EA6A3A0EE96EEF500DE0060ECA
:1001F000016E006A002EFED7012EFBD77B0E006E2B
:10020000002EFED7EF2EF3D712002A902A922A84CE
:100210002A96380E3A6EDBDF420E006E002EFED7B5
:1002200000000C0E3A6ED3DF420E006E002EFED799
:100230000000010E3A6ECBDF020E3A6ED3DF060EDF
:100240003A6EC5DF420E006E002EFED7000073EF3F
:1002500004F02A843CC03DF0ADDF200E006E002E7D
:10026000FED700D0000012000900F5520CE0F6CFD6
:100270003AF0F7CF3BF0F5CF3CF0EBDF3AC0F6FFBA
:100280003BC0F7FFF1D77BEF04F0080E016E0000D2
:100290008A92939200003A368A90D8B09380D8A080
:1002A0009390938281A2FED7012EF1D700008A920B
:1002B00093920000938000000000938281A2FED7F9
:1002C000016A000081B001808A9293928A90939093
:1002D0001200080E3B6E00C03CF093800000938239
:1002E00081A2FED781B0D88081A0D89001360000CD
:1002F00093928A923B2EF1D7938000008A903C50D3
:10030000D8A493900000938281A2FED700008A9225
:10031000939200008A90939012009380050E006ED5
:10032000002EFED79382060E006E002EFED78A9016
:100330009390050E006E002EFED78A929392D00EF7
:100340003A6EA3DF3A6AA1DF9380050E006E002E9D
:10035000FED79382060E006E002EFED781A2FED736
:100360008A909390050E006E002EFED78A9293928B
:10037000D10E3A6E8ADF010E006EABDF01C031F0A4
:10038000010E006EA6DF01C030F0010E006EA1DF8D
:1003900001C02FF0010E006E9CDF01C02EF0010E97
:1003A000006E97DF01C02DF0010E006E92DF01C0DC
:1003B0002CF0010E006E8DDF01C02BF0010E006EDF
:1003C00088DF01C033F0006A84DF01C032F093900F
:1003D0000000938281A2FED7050E006E002EFED78C
:1003E00000D000009380050E006E002EFED7120094
:1003F000550E316E330E306E080E2F6E2E6E160EA9
:100400002D6E060E2C6E130E2B6E900E336E980E04
:10041000326E80EF04F09380050E006E002EFED742
:100420009382060E006E002EFED78A909390050EE2
:10043000006E002EFED78A929392D00E3A6E25DF80
:100440003A6A23DF31C03AF020DF30C03AF01DDFD6
:100450002FC03AF01ADF2EC03AF017DF2DC03AF065
:1004600014DF2CC03AF011DF2BC03AF00EDF33C09E
:100470003AF00BDF32C03AF008DF9390000093822D
:1004800081A2FED7050E006E002EFED700D0000020
:100490009380050E006E002EFED712008A0E3A6E73
:1004A00096DE300E39243A6E3C6ED3DE12008C0E8E
:1004B0003A6E8DDE2F38006E0F0E00160050300F92
:1004C0003A6E3C6EC6DE2F500F0B300F3A6E3C6E0C
:1004D000C0DE200E3C6EBDDE3038006E0F0E001602
:1004E0000050300F3A6E3C6EB4DE30500F0B300FC0
:1004F0003A6E3C6EAEDE200E3C6EABDE3138006EE6
:100500000F0E00160050300F3A6E3C6EA2DE3150D6
:100510000F0B300F3A6E3C6E9CDECC0E3A6E57DEFF
:100520002D38006E0F0E00160050300F3A6E3C6EE4
:1005300090DE2D500F0B300F3A6E3C6E8ADE200E8F
:100540003C6E87DE2C38006E0F0E00160050300F08
:100550003A6E3C6E7EDE2C500F0B300F3A6E3C6EC6
:1005600078DE200E3C6E75DE2B38006E0F0E001606
:100570000050300F3A6E3C6E6CDE2B500F0B300F7C
:100580003A6E3C6E66DE120039520DE18C0E3A6E08
:100590001EDE200E3C6E5DDE200E3C6E5ADE200E0E
:1005A0003C6E57DE4ED0392C0DD08F0E3A6E0FDEDA
:1005B000200E3C6E4EDE200E3C6E4BDE200E3C6E5E
:1005C00048DE3FD0395002080DE1920E3A6EFFDD51
:1005D000200E3C6E3EDE200E3C6E3BDE200E3C6E5E
:1005E00038DE2FD0395003080DE1D20E3A6EEFDD20
:1005F000200E3C6E2EDE200E3C6E2BDE200E3C6E5E
:1006000028DE1FD0395004080DE1CF0E3A6EDFDD31
:10061000200E3C6E1EDE200E3C6E1BDE200E3C6E5D
:1006200018DE0FD0395005080CE1CC0E3A6ECFDD44
:10063000200E3C6E0EDE200E3C6E0BDE200E3C6E5D
:1006400008DEA1EF04F0938481B410D0140E3A6E4A
:10065000C9DD938481B40AD03950050802E3392AF0
:1006600001D0396A1BDF938481A4FDD7B1EF04F078
:100670003AC03BF00F0E3A163A500A0802E1060E55
:100680003B263BC001F01200C6DE11DF1200938A48
:1006900081BA67D0140E3A6EA5DD938A81BA61D013
:1006A0003950010A0BE0030A16E0010A21E0070AAB
:1006B0002CE0010A38E0030A44E050D031505908D8
:1006C00002E1316A06D0312A31C03AF0D1DF01C0EF
:1006D00031F0DADF43D03050590802E1306A06D0F9
:1006E000302A30C03AF0C4DF01C030F0CDDF36D060
:1006F0002F50230802E12F6A06D02F2A2FC03AF08C
:10070000B7DF01C02FF0C0DF29D02D50310803E141
:10071000010E2D6E06D02D2A2DC03AF0A9DF01C0A2
:100720002DF0B2DF1BD02C50120803E1010E2C6E0D
:1007300006D02C2A2CC03AF09BDF01C02CF0A4DF9D
:100740000DD02B50990802E12B6A06D02B2A2BC022
:100750003AF08EDF01C02BF097DF00D0938A81AA98
:10076000FDD7B2EF04F03AC03BF00F0E3A163A5004
:100770000F0802E1060E3B5E3BC001F012009388B9
:1007800081B865D0140E3A6E2DDD938881B85FD0A4
:100790003950010A0BE0030A16E0010A21E0070ABA
:1007A0002CE0010A37E0030A42E04ED0315203E167
:1007B000590E316E06D0310631C03AF0D4DF01C097
:1007C00031F062DF41D0305203E1590E306E06D075
:1007D000300630C03AF0C7DF01C030F055DF34D00A
:1007E0002F5203E1230E2F6E06D02F062FC03AF0B2
:1007F000BADF01C02FF048DF27D02D5203E1310EC0
:100800002D6E06D02D062DC03AF0ADDF01C02DF0C3
:100810003BDF1AD02C2C03D0120E2C6E06D02C06E7
:100820002CC03AF0A0DF01C02CF02EDF0DD02B52EF
:1008300003E1990E2B6E06D02B062BC03AF093DF06
:1008400001C02BF021DF00D0938881A8FDD7B3EF42
:1008500004F03950010A0BE0030A0DE0010A0FE031
:10086000070A11E0010A13E0030A15E018D0D30EBD
:100870003A6EADDC14D0D00E3A6EA9DC10D0CD0E9D
:100880003A6EA5DC0CD08D0E3A6EA1DC08D0900E2D
:100890003A6E9DDC04D0930E3A6E99DC00D0BAEF2C
:1008A00004F0F86AD09E078EB886080EAF6E020E6E
:1008B000B06EA60EAC6E900EAB6E166A1D6A1E6A06
:1008C0001F6A206A296AC150C00B0F09C16E070E4A
:1008D000B46E216822682368246825682668276822
:1008E000286831D492D4800E3A6E71DCAA0EF66E6E
:1008F000000EF76EB9D411DD3250980802E078D5B9
:100900008ADD396ACBDD09DD31C034F006DDCFDDAB
:100910003150345C1CE031C034F0385213E13750B0
:10092000090810E339520DE0385205E13750040848
:1009300002E32AD606D0385204E13750090801E311
:10094000B6DD04D00A0E375E000E385AA7DD366ACF
:10095000356A365027080BE303E135500F0807E3EB
:1009600072D695D60CD7352AD8B4362AF2D7395252
:0E09700001E06FD7C80E3A6E35DCC8D7030021
:020000040030CA
:0E00000027CC3E1E0087A1000FC00FE00F406E
:00000001FF
;PIC18F4550
;CRC=8246  CREATED="07-Thg5-23 14:22"
