:1000000012EF02F0F76A140FF66E000EF7220900E5
:10001000F5501200C0F9A4B0999282F880908883BC
:10002000C6A1868E2C6A2C5007080EE32BBE02D088
:100030008D9401D08D84969496908D9096908D801D
:10004000D8902B362C2AEFD7120028C029F027C0D1
:100050002AF029C02BF0E6DF2AC02BF0E3DF1200E4
:10006000286A276AF2DF286A276AEFDF286A276A88
:10007000ECDF286A276AE9DF95968C8695968C9640
:1000800095988C8895988C98959A8C8A959A8C9A44
:10009000959E8C8E959E8C9E95948C8495948C9434
:1000A00028682768D2DF28682768CFDF959C8C8C6A
:1000B000959C8C9C68EF00F0FF0E926E3C0E936E48
:1000C000F10E946E000E966E956E956A8C6AC8D786
:1000D000F19E066A056AC050C00B0209C06EC08E50
:1000E000C280C150C00B0C09C16E95908C9032EF4C
:1000F00002F0030E295E09E3EA6A290EE96EEF5069
:1001000004E001D000D0EF2EFDD71200929A929A0F
:10011000899A020E286EF90E296EEBDF282EFBD786
:10012000928A070E006E002EFED700D0000080BA23
:1001300003D0000E016E10D06B0E006E002EFED7A5
:1001400000D00000279080AA2780F00E296ED1DF12
:10015000000E27B0010E016E1200929A929A899AAF
:10016000100E006E002EFED700002A520EE0929A6A
:10017000929A898A100E006E002EFED7000080BA77
:1001800003D0000E016E1FD00DD0929A929A899AD8
:10019000100E006E002EFED7000080AA03D0000EC5
:1001A000016E11D0520E006E002EFED700D000005E
:1001B000929A929A898A520E006E002EFED700D033
:1001C0000000010E016EF2EF00F0010E286E2850C3
:1001D00008080FE3D8902732000ED8B0010E296E20
:1001E0002A6EBBD7015203E1000E016E04D0282A0B
:1001F000EED7010E016E120089DFCC0E276EE5DF0F
:100200004E0E276EE2DF276AE0DF276ADEDF1F0E71
:10021000276EDBDF7BDFCC0E276ED7DF480E276E25
:10022000D4DF33EF02F0929A929A899A160E006EFA
:10023000002EFED700D00000928A070E006E002E1E
:10024000FED700D00000299080BA2980A60E006E4B
:10025000002EFED70000000E29B0010E016E37EF10
:1002600001F0010E276E2750080809E3DCD7015280
:1002700002E1D89001D0D8802832272AF4D728C0AC
:1002800001F01200CC0E276EA0DF440E276E9DDF1A
:100290003DDFCC0E276E99DFBE0E276E96DFE1DFC5
:1002A00001C018F0DEDF01C019F019C01CF018C041
:1002B0001BF091EF01F0016A026A006A036A2A509A
:1002C00002E1295018E0100E2B6ED8902736283600
:1002D000003603362A50035C02E12950005C07E334
:1002E0002950005ED8A003062A50035ED88001364C
:1002F00002362B2EEAD712002AC02BF093DE29C03B
:100300002BF090DE28C02BF08DDE27C02BF08ADE8C
:10031000959C8C9C959C8C8C1200F8DE015201E01F
:10032000B1D71A50185C48E018C01AF01C321B32C2
:100330001C321B321C321B321C321B320F0E1C169D
:100340001C6A1CC028F01BC027F02A6A0A0E296EFE
:10035000B2DF02C028F001C027F002C003F0015054
:10036000F2CF29F0F29E4EDE29BEF28E036A1D6E98
:1003700003C01EF01CC028F01BC027F02A6A0A0E1A
:10038000296E99DF00C027F003C028F003C003F0F6
:100390000050F2CF29F0F29E35DE29BEF28E036ABC
:1003A0001F6E03C020F023C027F025C028F01DC019
:1003B00029F01FC02AF0A0DF45EF02F022C028F08C
:1003C00021C027F02A6A0A0E296E75DF02C028F0C4
:1003D00001C027F002C003F00150F2CF29F0F29ED5
:1003E00011DE29BEF28E036A236E03C024F022C000
:1003F00028F021C027F02A6A0A0E296E5CDF00C0AF
:1004000027F003C028F003C003F00050F2CF29F01A
:10041000F29EF8DD29BEF28E036A256E03C026F037
:1004200046EF02F0F86AD09EB886080EAF6E020E54
:10043000B06EA60EAC6E900EAB6E046A0B6A0C6AC0
:100440000D6A0E6A176AC150C00B0F09C16E070E04
:10045000B46E0F6810681168126813681468156824
:1004600016682AD6C9D61A6AE80ED56ED76AD66A31
:10047000D650216ED7CF22F02150640805E12252D8
:1004800003E1226A010E216E48D798D723C027F0D6
:1004900025C028F01DC029F01FC02AF02DDFE8D7A5
:0204A000030057
:020000040030CA
:0E00000027CC3E1E0087A1000FC00FE00F406E
:00000001FF
;PIC18F4550
;CRC=1BF3  CREATED="27-Thg4-23 10:22"
