:100000009CEF01F0000E956E966E956A8C68046800
:10001000056895928C9295908C90086A076AB3EF68
:1000200001F034C036F0356A355007080EE336BEAD
:1000300002D08D9401D08D84969496908D90969058
:100040008D80D8903636352AEFD71200956A8C6AA3
:1000500004B802D08C9801D08C88959804BC02D04A
:100060008C9C01D08C8C959C04B402D08C9401D0D3
:100070008C84959495928C824CEF00F030C034F0D3
:10008000D0DF31C034F0CDDF32C034F0CADF33C04E
:1000900034F0C7DF0498DAD7959A8C8A959A8C9AAF
:1000A00095928C9265EF00F029C02CF028C02DF0BD
:1000B0002BC02EF02AC02FF02CC030F02DC031F014
:1000C0002EC032F02FC033F0D9D778EF00F022C025
:1000D00024F023C025F021C027F020C026F025C041
:1000E00029F024C028F027C02BF026C02AF0DCD746
:1000F0001200EA6A210EE96EEF500DE0060E016E65
:10010000006A002EFED7012EFBD77B0E006E002E5C
:10011000FED7EF2EF3D712001D6A1C6A1B6A1A6AFB
:100120001E6A1E50030832E31DC023F01CC022F0DB
:100130001BC021F01AC020F0CADFC80E216ED9DF23
:100140001D30246E1C30236E1B30226E1A30216E3F
:1001500024322332223221322432233222322132FB
:1001600024322332223221322432233222322132EB
:10017000070E24163E0E23121A6A2250FC0B1B6E29
:1001800023503F0B1C6E1D6A1E2ACBD71E6A1E50C1
:10019000030832E31DC023F01CC022F01BC021F075
:1001A0001AC020F094DFC80E216EA3DF1A34216E2E
:1001B0001B34226E1C34236E1D34246E21362236ED
:1001C000233624362136223623362436213622366B
:1001D000233624362136223623362436E00E2116E5
:1001E0007C0E22121A6A2250FC0B1B6E23503F0B0E
:1001F0001C6E1D6A1E2ACBD7B8EF01F01E6A1E5076
:10020000030836E31DC023F01CC022F01BC021F000
:100210001AC020F05CDFC80E216E6BDF1D30246E2B
:100220001C30236E1B30226E1A30216E2432233292
:10023000223221322432233222322132243223321A
:10024000223221322432233222322132070E241666
:10025000C10E23162150FF091A6E225003091B6E8E
:100260002350C0091C6E2450FF091D6E1E2AC7D7DB
:100270001E6A1E50030836E31DC023F01CC022F086
:100280001BC021F01AC020F022DFC80E216E31DF22
:100290001A34216E1B34226E1C34236E1D34246EDE
:1002A000213622362336243621362236233624368A
:1002B000213622362336243621362236233624367A
:1002C000E00E2116830E22162150FF091A6E2250CD
:1002D00003091B6E2350C0091C6E2450FF091D6EBC
:1002E0001E2AC7D712001D6A1C6A1B6A1A6A1E6A78
:1002F0001E50020820E31DC023F01CC022F01BC0CA
:1003000021F01AC020F0E3DE020E206E960E216E60
:10031000F0DE202EFBD7236A3F0E226EFC0E216EEC
:10032000206AD5DE020E206E960E216EE2DE202EB1
:10033000FBD71E2ADDD71200F86AD09E066A0D6A26
:100340000E6A0F6A106A196AC150C00B0F09C16E9C
:10035000070EB46E11681268136814681568166881
:10036000176818684FD61F6A1F50010803E3D4D6D8
:100370001F2AFAD71F6A1F50010803E33FDF1F2A15
:0C038000FAD7B1DF3BDFAFDFEED70300A0
:020000040030CA
:0E00000027CC3E1E0087A1000FC00FE00F406E
:00000001FF
;PIC18F4550
;CRC=9162  CREATED="08-Thg2-23 20:57"
